{
  "contracts/KIRU.sol": {
    "KIRU": {
      "abi": [
        {
          "inputs": [],
          "stateMutability": "nonpayable",
          "type": "constructor"
        },
        {
          "anonymous": false,
          "inputs": [
            {
              "indexed": true,
              "internalType": "address",
              "name": "owner",
              "type": "address"
            },
            {
              "indexed": true,
              "internalType": "address",
              "name": "spender",
              "type": "address"
            },
            {
              "indexed": false,
              "internalType": "uint256",
              "name": "value",
              "type": "uint256"
            }
          ],
          "name": "Approval",
          "type": "event"
        },
        {
          "anonymous": false,
          "inputs": [
            {
              "indexed": false,
              "internalType": "uint256",
              "name": "minTokensBeforeSwap",
              "type": "uint256"
            }
          ],
          "name": "MinTokensBeforeSwapUpdated",
          "type": "event"
        },
        {
          "anonymous": false,
          "inputs": [
            {
              "indexed": true,
              "internalType": "address",
              "name": "previousOwner",
              "type": "address"
            },
            {
              "indexed": true,
              "internalType": "address",
              "name": "newOwner",
              "type": "address"
            }
          ],
          "name": "OwnershipTransferred",
          "type": "event"
        },
        {
          "anonymous": false,
          "inputs": [
            {
              "indexed": false,
              "internalType": "uint256",
              "name": "tokensSwapped",
              "type": "uint256"
            },
            {
              "indexed": false,
              "internalType": "uint256",
              "name": "ethReceived",
              "type": "uint256"
            },
            {
              "indexed": false,
              "internalType": "uint256",
              "name": "tokensIntoLiqudity",
              "type": "uint256"
            }
          ],
          "name": "SwapAndLiquify",
          "type": "event"
        },
        {
          "anonymous": false,
          "inputs": [
            {
              "indexed": false,
              "internalType": "bool",
              "name": "enabled",
              "type": "bool"
            }
          ],
          "name": "SwapAndLiquifyEnabledUpdated",
          "type": "event"
        },
        {
          "anonymous": false,
          "inputs": [
            {
              "indexed": true,
              "internalType": "address",
              "name": "from",
              "type": "address"
            },
            {
              "indexed": true,
              "internalType": "address",
              "name": "to",
              "type": "address"
            },
            {
              "indexed": false,
              "internalType": "uint256",
              "name": "value",
              "type": "uint256"
            }
          ],
          "name": "Transfer",
          "type": "event"
        },
        {
          "inputs": [],
          "name": "_liquidityFee",
          "outputs": [
            {
              "internalType": "uint256",
              "name": "",
              "type": "uint256"
            }
          ],
          "stateMutability": "view",
          "type": "function"
        },
        {
          "inputs": [],
          "name": "_maxTxAmount",
          "outputs": [
            {
              "internalType": "uint256",
              "name": "",
              "type": "uint256"
            }
          ],
          "stateMutability": "view",
          "type": "function"
        },
        {
          "inputs": [],
          "name": "_sellLiquidityFee",
          "outputs": [
            {
              "internalType": "uint256",
              "name": "",
              "type": "uint256"
            }
          ],
          "stateMutability": "view",
          "type": "function"
        },
        {
          "inputs": [],
          "name": "_sellTaxFee",
          "outputs": [
            {
              "internalType": "uint256",
              "name": "",
              "type": "uint256"
            }
          ],
          "stateMutability": "view",
          "type": "function"
        },
        {
          "inputs": [],
          "name": "_taxFee",
          "outputs": [
            {
              "internalType": "uint256",
              "name": "",
              "type": "uint256"
            }
          ],
          "stateMutability": "view",
          "type": "function"
        },
        {
          "inputs": [
            {
              "internalType": "address",
              "name": "owner",
              "type": "address"
            },
            {
              "internalType": "address",
              "name": "spender",
              "type": "address"
            }
          ],
          "name": "allowance",
          "outputs": [
            {
              "internalType": "uint256",
              "name": "",
              "type": "uint256"
            }
          ],
          "stateMutability": "view",
          "type": "function"
        },
        {
          "inputs": [
            {
              "internalType": "address",
              "name": "spender",
              "type": "address"
            },
            {
              "internalType": "uint256",
              "name": "amount",
              "type": "uint256"
            }
          ],
          "name": "approve",
          "outputs": [
            {
              "internalType": "bool",
              "name": "",
              "type": "bool"
            }
          ],
          "stateMutability": "nonpayable",
          "type": "function"
        },
        {
          "inputs": [
            {
              "internalType": "address",
              "name": "account",
              "type": "address"
            }
          ],
          "name": "balanceOf",
          "outputs": [
            {
              "internalType": "uint256",
              "name": "",
              "type": "uint256"
            }
          ],
          "stateMutability": "view",
          "type": "function"
        },
        {
          "inputs": [],
          "name": "decimals",
          "outputs": [
            {
              "internalType": "uint8",
              "name": "",
              "type": "uint8"
            }
          ],
          "stateMutability": "view",
          "type": "function"
        },
        {
          "inputs": [
            {
              "internalType": "address",
              "name": "spender",
              "type": "address"
            },
            {
              "internalType": "uint256",
              "name": "subtractedValue",
              "type": "uint256"
            }
          ],
          "name": "decreaseAllowance",
          "outputs": [
            {
              "internalType": "bool",
              "name": "",
              "type": "bool"
            }
          ],
          "stateMutability": "nonpayable",
          "type": "function"
        },
        {
          "inputs": [
            {
              "internalType": "uint256",
              "name": "tAmount",
              "type": "uint256"
            }
          ],
          "name": "deliver",
          "outputs": [],
          "stateMutability": "nonpayable",
          "type": "function"
        },
        {
          "inputs": [
            {
              "internalType": "address",
              "name": "account",
              "type": "address"
            }
          ],
          "name": "excludeFromFee",
          "outputs": [],
          "stateMutability": "nonpayable",
          "type": "function"
        },
        {
          "inputs": [
            {
              "internalType": "address",
              "name": "account",
              "type": "address"
            }
          ],
          "name": "excludeFromReward",
          "outputs": [],
          "stateMutability": "nonpayable",
          "type": "function"
        },
        {
          "inputs": [
            {
              "internalType": "address",
              "name": "account",
              "type": "address"
            }
          ],
          "name": "includeInFee",
          "outputs": [],
          "stateMutability": "nonpayable",
          "type": "function"
        },
        {
          "inputs": [
            {
              "internalType": "address",
              "name": "account",
              "type": "address"
            }
          ],
          "name": "includeInReward",
          "outputs": [],
          "stateMutability": "nonpayable",
          "type": "function"
        },
        {
          "inputs": [
            {
              "internalType": "address",
              "name": "spender",
              "type": "address"
            },
            {
              "internalType": "uint256",
              "name": "addedValue",
              "type": "uint256"
            }
          ],
          "name": "increaseAllowance",
          "outputs": [
            {
              "internalType": "bool",
              "name": "",
              "type": "bool"
            }
          ],
          "stateMutability": "nonpayable",
          "type": "function"
        },
        {
          "inputs": [
            {
              "internalType": "address",
              "name": "account",
              "type": "address"
            }
          ],
          "name": "isExcludedFromFee",
          "outputs": [
            {
              "internalType": "bool",
              "name": "",
              "type": "bool"
            }
          ],
          "stateMutability": "view",
          "type": "function"
        },
        {
          "inputs": [
            {
              "internalType": "address",
              "name": "account",
              "type": "address"
            }
          ],
          "name": "isExcludedFromReward",
          "outputs": [
            {
              "internalType": "bool",
              "name": "",
              "type": "bool"
            }
          ],
          "stateMutability": "view",
          "type": "function"
        },
        {
          "inputs": [],
          "name": "name",
          "outputs": [
            {
              "internalType": "string",
              "name": "",
              "type": "string"
            }
          ],
          "stateMutability": "view",
          "type": "function"
        },
        {
          "inputs": [],
          "name": "owner",
          "outputs": [
            {
              "internalType": "address",
              "name": "",
              "type": "address"
            }
          ],
          "stateMutability": "view",
          "type": "function"
        },
        {
          "inputs": [
            {
              "internalType": "uint256",
              "name": "tAmount",
              "type": "uint256"
            },
            {
              "internalType": "bool",
              "name": "deductTransferFee",
              "type": "bool"
            }
          ],
          "name": "reflectionFromToken",
          "outputs": [
            {
              "internalType": "uint256",
              "name": "",
              "type": "uint256"
            }
          ],
          "stateMutability": "view",
          "type": "function"
        },
        {
          "inputs": [],
          "name": "renounceOwnership",
          "outputs": [],
          "stateMutability": "nonpayable",
          "type": "function"
        },
        {
          "inputs": [
            {
              "internalType": "uint256",
              "name": "liquidityFee",
              "type": "uint256"
            }
          ],
          "name": "setLiquidityFeePercent",
          "outputs": [],
          "stateMutability": "nonpayable",
          "type": "function"
        },
        {
          "inputs": [
            {
              "internalType": "uint256",
              "name": "maxTxPercent",
              "type": "uint256"
            }
          ],
          "name": "setMaxTxPercent",
          "outputs": [],
          "stateMutability": "nonpayable",
          "type": "function"
        },
        {
          "inputs": [
            {
              "internalType": "uint256",
              "name": "sellTaxFee",
              "type": "uint256"
            },
            {
              "internalType": "uint256",
              "name": "sellLiquidityFee",
              "type": "uint256"
            }
          ],
          "name": "setSellFee",
          "outputs": [],
          "stateMutability": "nonpayable",
          "type": "function"
        },
        {
          "inputs": [
            {
              "internalType": "bool",
              "name": "_enabled",
              "type": "bool"
            }
          ],
          "name": "setSwapAndLiquifyEnabled",
          "outputs": [],
          "stateMutability": "nonpayable",
          "type": "function"
        },
        {
          "inputs": [
            {
              "internalType": "uint256",
              "name": "taxFee",
              "type": "uint256"
            }
          ],
          "name": "setTaxFeePercent",
          "outputs": [],
          "stateMutability": "nonpayable",
          "type": "function"
        },
        {
          "inputs": [],
          "name": "swapAndLiquifyEnabled",
          "outputs": [
            {
              "internalType": "bool",
              "name": "",
              "type": "bool"
            }
          ],
          "stateMutability": "view",
          "type": "function"
        },
        {
          "inputs": [],
          "name": "symbol",
          "outputs": [
            {
              "internalType": "string",
              "name": "",
              "type": "string"
            }
          ],
          "stateMutability": "view",
          "type": "function"
        },
        {
          "inputs": [
            {
              "internalType": "uint256",
              "name": "rAmount",
              "type": "uint256"
            }
          ],
          "name": "tokenFromReflection",
          "outputs": [
            {
              "internalType": "uint256",
              "name": "",
              "type": "uint256"
            }
          ],
          "stateMutability": "view",
          "type": "function"
        },
        {
          "inputs": [],
          "name": "totalFees",
          "outputs": [
            {
              "internalType": "uint256",
              "name": "",
              "type": "uint256"
            }
          ],
          "stateMutability": "view",
          "type": "function"
        },
        {
          "inputs": [],
          "name": "totalSupply",
          "outputs": [
            {
              "internalType": "uint256",
              "name": "",
              "type": "uint256"
            }
          ],
          "stateMutability": "view",
          "type": "function"
        },
        {
          "inputs": [
            {
              "internalType": "address",
              "name": "recipient",
              "type": "address"
            },
            {
              "internalType": "uint256",
              "name": "amount",
              "type": "uint256"
            }
          ],
          "name": "transfer",
          "outputs": [
            {
              "internalType": "bool",
              "name": "",
              "type": "bool"
            }
          ],
          "stateMutability": "nonpayable",
          "type": "function"
        },
        {
          "inputs": [
            {
              "internalType": "address",
              "name": "sender",
              "type": "address"
            },
            {
              "internalType": "address",
              "name": "recipient",
              "type": "address"
            },
            {
              "internalType": "uint256",
              "name": "amount",
              "type": "uint256"
            }
          ],
          "name": "transferFrom",
          "outputs": [
            {
              "internalType": "bool",
              "name": "",
              "type": "bool"
            }
          ],
          "stateMutability": "nonpayable",
          "type": "function"
        },
        {
          "inputs": [
            {
              "internalType": "address",
              "name": "newOwner",
              "type": "address"
            }
          ],
          "name": "transferOwnership",
          "outputs": [],
          "stateMutability": "nonpayable",
          "type": "function"
        },
        {
          "inputs": [],
          "name": "uniswapV2Pair",
          "outputs": [
            {
              "internalType": "address",
              "name": "",
              "type": "address"
            }
          ],
          "stateMutability": "view",
          "type": "function"
        },
        {
          "inputs": [],
          "name": "uniswapV2Router",
          "outputs": [
            {
              "internalType": "contract IUniswapV2Router02",
              "name": "",
              "type": "address"
            }
          ],
          "stateMutability": "view",
          "type": "function"
        },
        {
          "stateMutability": "payable",
          "type": "receive"
        }
      ],
      "evm": {
        "bytecode": {
          "linkReferences": {},
          "object": "60c06040526aa56fa5b99019a5c8000000600781905562000023906000196200052b565b6200003190600019620004ca565b600855604080518082019091526009808252684b6962696d6172753360b81b60209092019182526200006691600a91620003f4565b50604080518082019091526005808252644b4952553360d81b60209092019182526200009591600b91620003f4565b50600c805460ff191660129081179091556005600d819055600e556000600f8190556010819055601181905590556013805461ff0019166101001790556c0c9f2c9cd04674edea400000006014556b033b2e3c9fd0803ce80000006015553480156200010057600080fd5b50600080546001600160a01b031916339081178255604051909182917f8be0079c531659141344cd1fd0a4f28419497f9722a3daafe3b4186f6b6457e0908290a350600854600160006200015c6000546001600160a01b031690565b6001600160a01b03166001600160a01b03168152602001908152602001600020819055506000739ac64cc6e4415144c455bd8e4837fea55603e5c39050806001600160a01b031663c45a01556040518163ffffffff1660e01b815260040160206040518083038186803b158015620001d357600080fd5b505afa158015620001e8573d6000803e3d6000fd5b505050506040513d601f19601f820116820180604052508101906200020e91906200049a565b6001600160a01b031663c9c6539630836001600160a01b031663ad5c46486040518163ffffffff1660e01b815260040160206040518083038186803b1580156200025757600080fd5b505afa1580156200026c573d6000803e3d6000fd5b505050506040513d601f19601f820116820180604052508101906200029291906200049a565b6040516001600160e01b031960e085901b1681526001600160a01b03928316600482015291166024820152604401602060405180830381600087803b158015620002db57600080fd5b505af1158015620002f0573d6000803e3d6000fd5b505050506040513d601f19601f820116820180604052508101906200031691906200049a565b6001600160601b0319606091821b811660a0529082901b166080526001600460006200034a6000546001600160a01b031690565b6001600160a01b0316815260208082019290925260409081016000908120805494151560ff1995861617905530815260049092529020805490911660011790556200039d6000546001600160a01b031690565b6001600160a01b031660006001600160a01b03167fddf252ad1be2c89b69c2b068fc378daa952ba7f163c4a11628f55a4df523b3ef600754604051620003e591815260200190565b60405180910390a3506200054c565b8280546200040290620004ee565b90600052602060002090601f01602090048101928262000426576000855562000471565b82601f106200044157805160ff191683800117855562000471565b8280016001018555821562000471579182015b828111156200047157825182559160200191906001019062000454565b506200047f92915062000483565b5090565b5b808211156200047f576000815560010162000484565b600060208284031215620004ac578081fd5b81516001600160a01b0381168114620004c3578182fd5b9392505050565b600082821015620004e957634e487b7160e01b81526011600452602481fd5b500390565b600181811c908216806200050357607f821691505b602082108114156200052557634e487b7160e01b600052602260045260246000fd5b50919050565b6000826200054757634e487b7160e01b81526012600452602481fd5b500690565b60805160601c60a05160601c6125d8620005a960003960008181610467015281816114f501526115a10152600081816102d801528181611bd201528181611ca801528181611ce401528181611d560152611d7d01526125d86000f3fe60806040526004361061021e5760003560e01c806352390c02116101235780638da5cb5b116100ab578063c49b9a801161006f578063c49b9a8014610664578063d543dbeb14610684578063dd62ed3e146106a4578063ea2f0b37146106ea578063f2fde38b1461070a57600080fd5b80638da5cb5b146105d15780638ee88c53146105ef57806395d89b411461060f578063a457c2d714610624578063a9059cbb1461064457600080fd5b806370a08231116100f257806370a0823114610537578063715018a6146105575780637d1db4a51461056c57806388790a681461058257806388f820201461059857600080fd5b806352390c02146104a85780635342acb4146104c85780636ac9a870146105015780636bc87c3a1461052157600080fd5b8063313ce567116101a65780633bd5d173116101755780633bd5d173146103f5578063437823ec146104155780634549b0391461043557806349bd5a5e146104555780634a74bb021461048957600080fd5b8063313ce5671461037d5780633685d4191461039f57806339509351146103bf5780633b124fe7146103df57600080fd5b80631694505e116101ed5780631694505e146102c657806318160ddd14610312578063200a692d1461032757806323b872dd1461033d5780632d8381191461035d57600080fd5b8063061c82d01461022a57806306fdde031461024c578063095ea7b31461027757806313114a9d146102a757600080fd5b3661022557005b600080fd5b34801561023657600080fd5b5061024a6102453660046122da565b61072a565b005b34801561025857600080fd5b50610261610762565b60405161026e919061236b565b60405180910390f35b34801561028357600080fd5b50610297610292366004612295565b6107f4565b604051901515815260200161026e565b3480156102b357600080fd5b506009545b60405190815260200161026e565b3480156102d257600080fd5b506102fa7f000000000000000000000000000000000000000000000000000000000000000081565b6040516001600160a01b03909116815260200161026e565b34801561031e57600080fd5b506007546102b8565b34801561033357600080fd5b506102b8600d5481565b34801561034957600080fd5b50610297610358366004612255565b61080b565b34801561036957600080fd5b506102b86103783660046122da565b610874565b34801561038957600080fd5b50600c5460405160ff909116815260200161026e565b3480156103ab57600080fd5b5061024a6103ba3660046121e5565b6108f8565b3480156103cb57600080fd5b506102976103da366004612295565b610ae7565b3480156103eb57600080fd5b506102b8600f5481565b34801561040157600080fd5b5061024a6104103660046122da565b610b1d565b34801561042157600080fd5b5061024a6104303660046121e5565b610c07565b34801561044157600080fd5b506102b86104503660046122f2565b610c55565b34801561046157600080fd5b506102fa7f000000000000000000000000000000000000000000000000000000000000000081565b34801561049557600080fd5b5060135461029790610100900460ff1681565b3480156104b457600080fd5b5061024a6104c33660046121e5565b610ce2565b3480156104d457600080fd5b506102976104e33660046121e5565b6001600160a01b031660009081526004602052604090205460ff1690565b34801561050d57600080fd5b5061024a61051c36600461231d565b610e35565b34801561052d57600080fd5b506102b860115481565b34801561054357600080fd5b506102b86105523660046121e5565b610e6a565b34801561056357600080fd5b5061024a610ec9565b34801561057857600080fd5b506102b860145481565b34801561058e57600080fd5b506102b8600e5481565b3480156105a457600080fd5b506102976105b33660046121e5565b6001600160a01b031660009081526005602052604090205460ff1690565b3480156105dd57600080fd5b506000546001600160a01b03166102fa565b3480156105fb57600080fd5b5061024a61060a3660046122da565b610f3d565b34801561061b57600080fd5b50610261610f6c565b34801561063057600080fd5b5061029761063f366004612295565b610f7b565b34801561065057600080fd5b5061029761065f366004612295565b610fca565b34801561067057600080fd5b5061024a61067f3660046122c0565b610fd7565b34801561069057600080fd5b5061024a61069f3660046122da565b611055565b3480156106b057600080fd5b506102b86106bf36600461221d565b6001600160a01b03918216600090815260036020908152604080832093909416825291909152205490565b3480156106f657600080fd5b5061024a6107053660046121e5565b6110a5565b34801561071657600080fd5b5061024a6107253660046121e5565b6110f0565b6000546001600160a01b0316331461075d5760405162461bcd60e51b8152600401610754906123be565b60405180910390fd5b600f55565b6060600a8054610771906124d1565b80601f016020809104026020016040519081016040528092919081815260200182805461079d906124d1565b80156107ea5780601f106107bf576101008083540402835291602001916107ea565b820191906000526020600020905b8154815290600101906020018083116107cd57829003601f168201915b5050505050905090565b60006108013384846111da565b5060015b92915050565b60006108188484846112fe565b61086a843361086585604051806060016040528060288152602001612556602891396001600160a01b038a166000908152600360209081526040808320338452909152902054919061160a565b6111da565b5060019392505050565b60006008548211156108db5760405162461bcd60e51b815260206004820152602a60248201527f416d6f756e74206d757374206265206c657373207468616e20746f74616c207260448201526965666c656374696f6e7360b01b6064820152608401610754565b60006108e5611636565b90506108f18382611659565b9392505050565b6000546001600160a01b031633146109225760405162461bcd60e51b8152600401610754906123be565b6001600160a01b03811660009081526005602052604090205460ff1661098a5760405162461bcd60e51b815260206004820152601b60248201527f4163636f756e7420697320616c726561647920696e636c7564656400000000006044820152606401610754565b60005b600654811015610ae357816001600160a01b0316600682815481106109c257634e487b7160e01b600052603260045260246000fd5b6000918252602090912001546001600160a01b03161415610ad157600680546109ed906001906124ba565b81548110610a0b57634e487b7160e01b600052603260045260246000fd5b600091825260209091200154600680546001600160a01b039092169183908110610a4557634e487b7160e01b600052603260045260246000fd5b600091825260208083209190910180546001600160a01b0319166001600160a01b039485161790559184168152600282526040808220829055600590925220805460ff191690556006805480610aab57634e487b7160e01b600052603160045260246000fd5b600082815260209020810160001990810180546001600160a01b03191690550190555050565b80610adb8161250c565b91505061098d565b5050565b3360008181526003602090815260408083206001600160a01b038716845290915281205490916108019185906108659086611665565b3360008181526005602052604090205460ff1615610b925760405162461bcd60e51b815260206004820152602c60248201527f4578636c75646564206164647265737365732063616e6e6f742063616c6c207460448201526b3434b990333ab731ba34b7b760a11b6064820152608401610754565b6000610b9d83611671565b505050506001600160a01b038416600090815260016020526040902054919250610bc9919050826116c0565b6001600160a01b038316600090815260016020526040902055600854610bef90826116c0565b600855600954610bff9084611665565b600955505050565b6000546001600160a01b03163314610c315760405162461bcd60e51b8152600401610754906123be565b6001600160a01b03166000908152600460205260409020805460ff19166001179055565b6000600754831115610ca95760405162461bcd60e51b815260206004820152601f60248201527f416d6f756e74206d757374206265206c657373207468616e20737570706c79006044820152606401610754565b81610cc8576000610cb984611671565b50939550610805945050505050565b6000610cd384611671565b50929550610805945050505050565b6000546001600160a01b03163314610d0c5760405162461bcd60e51b8152600401610754906123be565b6001600160a01b03811660009081526005602052604090205460ff1615610d755760405162461bcd60e51b815260206004820152601b60248201527f4163636f756e7420697320616c7265616479206578636c7564656400000000006044820152606401610754565b6001600160a01b03811660009081526001602052604090205415610dcf576001600160a01b038116600090815260016020526040902054610db590610874565b6001600160a01b0382166000908152600260205260409020555b6001600160a01b03166000818152600560205260408120805460ff191660019081179091556006805491820181559091527ff652222313e28459528d920b65115c16c04f3efc82aaedc97be59f3f377c0d3f0180546001600160a01b0319169091179055565b6000546001600160a01b03163314610e5f5760405162461bcd60e51b8152600401610754906123be565b600d91909155600e55565b6001600160a01b03811660009081526005602052604081205460ff1615610ea757506001600160a01b031660009081526002602052604090205490565b6001600160a01b03821660009081526001602052604090205461080590610874565b6000546001600160a01b03163314610ef35760405162461bcd60e51b8152600401610754906123be565b600080546040516001600160a01b03909116907f8be0079c531659141344cd1fd0a4f28419497f9722a3daafe3b4186f6b6457e0908390a3600080546001600160a01b0319169055565b6000546001600160a01b03163314610f675760405162461bcd60e51b8152600401610754906123be565b601155565b6060600b8054610771906124d1565b600061080133846108658560405180606001604052806025815260200161257e602591393360009081526003602090815260408083206001600160a01b038d168452909152902054919061160a565b60006108013384846112fe565b6000546001600160a01b031633146110015760405162461bcd60e51b8152600401610754906123be565b601380548215156101000261ff00199091161790556040517f53726dfcaf90650aa7eb35524f4d3220f07413c8d6cb404cc8c18bf5591bc1599061104a90831515815260200190565b60405180910390a150565b6000546001600160a01b0316331461107f5760405162461bcd60e51b8152600401610754906123be565b61109f6064611099836007546116cc90919063ffffffff16565b90611659565b60145550565b6000546001600160a01b031633146110cf5760405162461bcd60e51b8152600401610754906123be565b6001600160a01b03166000908152600460205260409020805460ff19169055565b6000546001600160a01b0316331461111a5760405162461bcd60e51b8152600401610754906123be565b6001600160a01b03811661117f5760405162461bcd60e51b815260206004820152602660248201527f4f776e61626c653a206e6577206f776e657220697320746865207a65726f206160448201526564647265737360d01b6064820152608401610754565b600080546040516001600160a01b03808516939216917f8be0079c531659141344cd1fd0a4f28419497f9722a3daafe3b4186f6b6457e091a3600080546001600160a01b0319166001600160a01b0392909216919091179055565b6001600160a01b03831661123c5760405162461bcd60e51b8152602060048201526024808201527f45524332303a20617070726f76652066726f6d20746865207a65726f206164646044820152637265737360e01b6064820152608401610754565b6001600160a01b03821661129d5760405162461bcd60e51b815260206004820152602260248201527f45524332303a20617070726f766520746f20746865207a65726f206164647265604482015261737360f01b6064820152608401610754565b6001600160a01b0383811660008181526003602090815260408083209487168084529482529182902085905590518481527f8c5be1e5ebec7d5bd14f71427d1e84f3dd0314c0f7b2291e5b200ac8c7c3b925910160405180910390a3505050565b6001600160a01b0383166113625760405162461bcd60e51b815260206004820152602560248201527f45524332303a207472616e736665722066726f6d20746865207a65726f206164604482015264647265737360d81b6064820152608401610754565b6001600160a01b0382166113c45760405162461bcd60e51b815260206004820152602360248201527f45524332303a207472616e7366657220746f20746865207a65726f206164647260448201526265737360e81b6064820152608401610754565b600081116114265760405162461bcd60e51b815260206004820152602960248201527f5472616e7366657220616d6f756e74206d7573742062652067726561746572206044820152687468616e207a65726f60b81b6064820152608401610754565b6000546001600160a01b0384811691161480159061145257506000546001600160a01b03838116911614155b156114ba576014548111156114ba5760405162461bcd60e51b815260206004820152602860248201527f5472616e7366657220616d6f756e74206578636565647320746865206d6178546044820152673c20b6b7bab73a1760c11b6064820152608401610754565b60006114c530610e6a565b905060145481106114d557506014545b601554811080159081906114ec575060135460ff16155b801561152a57507f00000000000000000000000000000000000000000000000000000000000000006001600160a01b0316856001600160a01b031614155b801561153d5750601354610100900460ff165b15611550576015549150611550826116d8565b6001600160a01b03851660009081526004602052604090205460019060ff168061159257506001600160a01b03851660009081526004602052604090205460ff165b1561159f575060006115f6565b7f00000000000000000000000000000000000000000000000000000000000000006001600160a01b0316856001600160a01b031614156115f2576115e1611776565b600d54600f55600e546011556115f6565b5060005b611602868686846117a4565b505050505050565b6000818484111561162e5760405162461bcd60e51b8152600401610754919061236b565b505050900390565b6000806000611643611921565b90925090506116528282611659565b9250505090565b60006108f1828461247b565b60006108f18284612463565b60008060008060008060008060006116888a611adb565b92509250925060008060006116a68d86866116a1611636565b611b1d565b919f909e50909c50959a5093985091965092945050505050565b60006108f182846124ba565b60006108f1828461249b565b6013805460ff1916600117905560006116f2826002611659565b9050600061170083836116c0565b90504761170c83611b6d565b600061171847836116c0565b90506117248382611d50565b60408051858152602081018390529081018490527f17bbfb9a6069321b6ded73bd96327c9e6b7212a5cd51ff219cd61370acafb5619060600160405180910390a150506013805460ff19169055505050565b600f541580156117865750601154155b1561178d57565b600f80546010556011805460125560009182905555565b806117b1576117b1611776565b6001600160a01b03841660009081526005602052604090205460ff1680156117f257506001600160a01b03831660009081526005602052604090205460ff16155b1561180757611802848484611e65565b611905565b6001600160a01b03841660009081526005602052604090205460ff1615801561184857506001600160a01b03831660009081526005602052604090205460ff165b1561185857611802848484611f8b565b6001600160a01b03841660009081526005602052604090205460ff1615801561189a57506001600160a01b03831660009081526005602052604090205460ff16155b156118aa57611802848484612034565b6001600160a01b03841660009081526005602052604090205460ff1680156118ea57506001600160a01b03831660009081526005602052604090205460ff165b156118fa57611802848484612078565b611905848484612034565b8061191b5761191b601054600f55601254601155565b50505050565b6008546007546000918291825b600654811015611aab5782600160006006848154811061195e57634e487b7160e01b600052603260045260246000fd5b60009182526020808320909101546001600160a01b0316835282019290925260400190205411806119d757508160026000600684815481106119b057634e487b7160e01b600052603260045260246000fd5b60009182526020808320909101546001600160a01b03168352820192909252604001902054115b156119ed57600854600754945094505050509091565b611a416001600060068481548110611a1557634e487b7160e01b600052603260045260246000fd5b60009182526020808320909101546001600160a01b0316835282019290925260400190205484906116c0565b9250611a976002600060068481548110611a6b57634e487b7160e01b600052603260045260246000fd5b60009182526020808320909101546001600160a01b0316835282019290925260400190205483906116c0565b915080611aa38161250c565b91505061192e565b50600754600854611abb91611659565b821015611ad2576008546007549350935050509091565b90939092509050565b600080600080611aea856120eb565b90506000611af786612107565b90506000611b0f82611b0989866116c0565b906116c0565b979296509094509092505050565b6000808080611b2c88866116cc565b90506000611b3a88876116cc565b90506000611b4888886116cc565b90506000611b5a82611b0986866116c0565b939b939a50919850919650505050505050565b6040805160028082526060820183526000926020830190803683370190505090503081600081518110611bb057634e487b7160e01b600052603260045260246000fd5b60200260200101906001600160a01b031690816001600160a01b0316815250507f00000000000000000000000000000000000000000000000000000000000000006001600160a01b031663ad5c46486040518163ffffffff1660e01b815260040160206040518083038186803b158015611c2957600080fd5b505afa158015611c3d573d6000803e3d6000fd5b505050506040513d601f19601f82011682018060405250810190611c619190612201565b81600181518110611c8257634e487b7160e01b600052603260045260246000fd5b60200260200101906001600160a01b031690816001600160a01b031681525050611ccd307f0000000000000000000000000000000000000000000000000000000000000000846111da565b60405163791ac94760e01b81526001600160a01b037f0000000000000000000000000000000000000000000000000000000000000000169063791ac94790611d229085906000908690309042906004016123f3565b600060405180830381600087803b158015611d3c57600080fd5b505af1158015611602573d6000803e3d6000fd5b611d7b307f0000000000000000000000000000000000000000000000000000000000000000846111da565b7f00000000000000000000000000000000000000000000000000000000000000006001600160a01b031663f305d719823085600080611dc26000546001600160a01b031690565b60405160e088901b6001600160e01b03191681526001600160a01b03958616600482015260248101949094526044840192909252606483015290911660848201524260a482015260c4016060604051808303818588803b158015611e2557600080fd5b505af1158015611e39573d6000803e3d6000fd5b50505050506040513d601f19601f82011682018060405250810190611e5e919061233e565b5050505050565b600080600080600080611e7787611671565b6001600160a01b038f16600090815260026020526040902054959b50939950919750955093509150611ea990886116c0565b6001600160a01b038a16600090815260026020908152604080832093909355600190522054611ed890876116c0565b6001600160a01b03808b1660009081526001602052604080822093909355908a1681522054611f079086611665565b6001600160a01b038916600090815260016020526040902055611f2981612123565b611f3384836121ac565b876001600160a01b0316896001600160a01b03167fddf252ad1be2c89b69c2b068fc378daa952ba7f163c4a11628f55a4df523b3ef85604051611f7891815260200190565b60405180910390a3505050505050505050565b600080600080600080611f9d87611671565b6001600160a01b038f16600090815260016020526040902054959b50939950919750955093509150611fcf90876116c0565b6001600160a01b03808b16600090815260016020908152604080832094909455918b168152600290915220546120059084611665565b6001600160a01b038916600090815260026020908152604080832093909355600190522054611f079086611665565b60008060008060008061204687611671565b6001600160a01b038f16600090815260016020526040902054959b50939950919750955093509150611ed890876116c0565b60008060008060008061208a87611671565b6001600160a01b038f16600090815260026020526040902054959b509399509197509550935091506120bc90886116c0565b6001600160a01b038a16600090815260026020908152604080832093909355600190522054611fcf90876116c0565b60006108056064611099600f54856116cc90919063ffffffff16565b60006108056064611099601154856116cc90919063ffffffff16565b600061212d611636565b9050600061213b83836116cc565b306000908152600160205260409020549091506121589082611665565b3060009081526001602090815260408083209390935560059052205460ff16156121a757306000908152600260205260409020546121969084611665565b306000908152600260205260409020555b505050565b6008546121b990836116c0565b6008556009546121c99082611665565b6009555050565b803580151581146121e057600080fd5b919050565b6000602082840312156121f6578081fd5b81356108f18161253d565b600060208284031215612212578081fd5b81516108f18161253d565b6000806040838503121561222f578081fd5b823561223a8161253d565b9150602083013561224a8161253d565b809150509250929050565b600080600060608486031215612269578081fd5b83356122748161253d565b925060208401356122848161253d565b929592945050506040919091013590565b600080604083850312156122a7578182fd5b82356122b28161253d565b946020939093013593505050565b6000602082840312156122d1578081fd5b6108f1826121d0565b6000602082840312156122eb578081fd5b5035919050565b60008060408385031215612304578182fd5b82359150612314602084016121d0565b90509250929050565b6000806040838503121561232f578182fd5b50508035926020909101359150565b600080600060608486031215612352578283fd5b8351925060208401519150604084015190509250925092565b6000602080835283518082850152825b818110156123975785810183015185820160400152820161237b565b818111156123a85783604083870101525b50601f01601f1916929092016040019392505050565b6020808252818101527f4f776e61626c653a2063616c6c6572206973206e6f7420746865206f776e6572604082015260600190565b600060a082018783526020878185015260a0604085015281875180845260c0860191508289019350845b818110156124425784516001600160a01b03168352938301939183019160010161241d565b50506001600160a01b03969096166060850152505050608001529392505050565b6000821982111561247657612476612527565b500190565b60008261249657634e487b7160e01b81526012600452602481fd5b500490565b60008160001904831182151516156124b5576124b5612527565b500290565b6000828210156124cc576124cc612527565b500390565b600181811c908216806124e557607f821691505b6020821081141561250657634e487b7160e01b600052602260045260246000fd5b50919050565b600060001982141561252057612520612527565b5060010190565b634e487b7160e01b600052601160045260246000fd5b6001600160a01b038116811461255257600080fd5b5056fe45524332303a207472616e7366657220616d6f756e74206578636565647320616c6c6f77616e636545524332303a2064656372656173656420616c6c6f77616e63652062656c6f77207a65726fa2646970667358221220f50ae1672725f90e8caa00c998ff66c1a06dd802667d4ad9ba1b127e93c8726d64736f6c63430008040033",
          "opcodes": "PUSH1 0xC0 PUSH1 0x40 MSTORE PUSH11 0xA56FA5B99019A5C8000000 PUSH1 0x7 DUP2 SWAP1 SSTORE PUSH3 0x23 SWAP1 PUSH1 0x0 NOT PUSH3 0x52B JUMP JUMPDEST PUSH3 0x31 SWAP1 PUSH1 0x0 NOT PUSH3 0x4CA JUMP JUMPDEST PUSH1 0x8 SSTORE PUSH1 0x40 DUP1 MLOAD DUP1 DUP3 ADD SWAP1 SWAP2 MSTORE PUSH1 0x9 DUP1 DUP3 MSTORE PUSH9 0x4B6962696D61727533 PUSH1 0xB8 SHL PUSH1 0x20 SWAP1 SWAP3 ADD SWAP2 DUP3 MSTORE PUSH3 0x66 SWAP2 PUSH1 0xA SWAP2 PUSH3 0x3F4 JUMP JUMPDEST POP PUSH1 0x40 DUP1 MLOAD DUP1 DUP3 ADD SWAP1 SWAP2 MSTORE PUSH1 0x5 DUP1 DUP3 MSTORE PUSH5 0x4B49525533 PUSH1 0xD8 SHL PUSH1 0x20 SWAP1 SWAP3 ADD SWAP2 DUP3 MSTORE PUSH3 0x95 SWAP2 PUSH1 0xB SWAP2 PUSH3 0x3F4 JUMP JUMPDEST POP PUSH1 0xC DUP1 SLOAD PUSH1 0xFF NOT AND PUSH1 0x12 SWAP1 DUP2 OR SWAP1 SWAP2 SSTORE PUSH1 0x5 PUSH1 0xD DUP2 SWAP1 SSTORE PUSH1 0xE SSTORE PUSH1 0x0 PUSH1 0xF DUP2 SWAP1 SSTORE PUSH1 0x10 DUP2 SWAP1 SSTORE PUSH1 0x11 DUP2 SWAP1 SSTORE SWAP1 SSTORE PUSH1 0x13 DUP1 SLOAD PUSH2 0xFF00 NOT AND PUSH2 0x100 OR SWAP1 SSTORE PUSH13 0xC9F2C9CD04674EDEA40000000 PUSH1 0x14 SSTORE PUSH12 0x33B2E3C9FD0803CE8000000 PUSH1 0x15 SSTORE CALLVALUE DUP1 ISZERO PUSH3 0x100 JUMPI PUSH1 0x0 DUP1 REVERT JUMPDEST POP PUSH1 0x0 DUP1 SLOAD PUSH1 0x1 PUSH1 0x1 PUSH1 0xA0 SHL SUB NOT AND CALLER SWAP1 DUP2 OR DUP3 SSTORE PUSH1 0x40 MLOAD SWAP1 SWAP2 DUP3 SWAP2 PUSH32 0x8BE0079C531659141344CD1FD0A4F28419497F9722A3DAAFE3B4186F6B6457E0 SWAP1 DUP3 SWAP1 LOG3 POP PUSH1 0x8 SLOAD PUSH1 0x1 PUSH1 0x0 PUSH3 0x15C PUSH1 0x0 SLOAD PUSH1 0x1 PUSH1 0x1 PUSH1 0xA0 SHL SUB AND SWAP1 JUMP JUMPDEST PUSH1 0x1 PUSH1 0x1 PUSH1 0xA0 SHL SUB AND PUSH1 0x1 PUSH1 0x1 PUSH1 0xA0 SHL SUB AND DUP2 MSTORE PUSH1 0x20 ADD SWAP1 DUP2 MSTORE PUSH1 0x20 ADD PUSH1 0x0 KECCAK256 DUP2 SWAP1 SSTORE POP PUSH1 0x0 PUSH20 0x9AC64CC6E4415144C455BD8E4837FEA55603E5C3 SWAP1 POP DUP1 PUSH1 0x1 PUSH1 0x1 PUSH1 0xA0 SHL SUB AND PUSH4 0xC45A0155 PUSH1 0x40 MLOAD DUP2 PUSH4 0xFFFFFFFF AND PUSH1 0xE0 SHL DUP2 MSTORE PUSH1 0x4 ADD PUSH1 0x20 PUSH1 0x40 MLOAD DUP1 DUP4 SUB DUP2 DUP7 DUP1 EXTCODESIZE ISZERO DUP1 ISZERO PUSH3 0x1D3 JUMPI PUSH1 0x0 DUP1 REVERT JUMPDEST POP GAS STATICCALL ISZERO DUP1 ISZERO PUSH3 0x1E8 JUMPI RETURNDATASIZE PUSH1 0x0 DUP1 RETURNDATACOPY RETURNDATASIZE PUSH1 0x0 REVERT JUMPDEST POP POP POP POP PUSH1 0x40 MLOAD RETURNDATASIZE PUSH1 0x1F NOT PUSH1 0x1F DUP3 ADD AND DUP3 ADD DUP1 PUSH1 0x40 MSTORE POP DUP2 ADD SWAP1 PUSH3 0x20E SWAP2 SWAP1 PUSH3 0x49A JUMP JUMPDEST PUSH1 0x1 PUSH1 0x1 PUSH1 0xA0 SHL SUB AND PUSH4 0xC9C65396 ADDRESS DUP4 PUSH1 0x1 PUSH1 0x1 PUSH1 0xA0 SHL SUB AND PUSH4 0xAD5C4648 PUSH1 0x40 MLOAD DUP2 PUSH4 0xFFFFFFFF AND PUSH1 0xE0 SHL DUP2 MSTORE PUSH1 0x4 ADD PUSH1 0x20 PUSH1 0x40 MLOAD DUP1 DUP4 SUB DUP2 DUP7 DUP1 EXTCODESIZE ISZERO DUP1 ISZERO PUSH3 0x257 JUMPI PUSH1 0x0 DUP1 REVERT JUMPDEST POP GAS STATICCALL ISZERO DUP1 ISZERO PUSH3 0x26C JUMPI RETURNDATASIZE PUSH1 0x0 DUP1 RETURNDATACOPY RETURNDATASIZE PUSH1 0x0 REVERT JUMPDEST POP POP POP POP PUSH1 0x40 MLOAD RETURNDATASIZE PUSH1 0x1F NOT PUSH1 0x1F DUP3 ADD AND DUP3 ADD DUP1 PUSH1 0x40 MSTORE POP DUP2 ADD SWAP1 PUSH3 0x292 SWAP2 SWAP1 PUSH3 0x49A JUMP JUMPDEST PUSH1 0x40 MLOAD PUSH1 0x1 PUSH1 0x1 PUSH1 0xE0 SHL SUB NOT PUSH1 0xE0 DUP6 SWAP1 SHL AND DUP2 MSTORE PUSH1 0x1 PUSH1 0x1 PUSH1 0xA0 SHL SUB SWAP3 DUP4 AND PUSH1 0x4 DUP3 ADD MSTORE SWAP2 AND PUSH1 0x24 DUP3 ADD MSTORE PUSH1 0x44 ADD PUSH1 0x20 PUSH1 0x40 MLOAD DUP1 DUP4 SUB DUP2 PUSH1 0x0 DUP8 DUP1 EXTCODESIZE ISZERO DUP1 ISZERO PUSH3 0x2DB JUMPI PUSH1 0x0 DUP1 REVERT JUMPDEST POP GAS CALL ISZERO DUP1 ISZERO PUSH3 0x2F0 JUMPI RETURNDATASIZE PUSH1 0x0 DUP1 RETURNDATACOPY RETURNDATASIZE PUSH1 0x0 REVERT JUMPDEST POP POP POP POP PUSH1 0x40 MLOAD RETURNDATASIZE PUSH1 0x1F NOT PUSH1 0x1F DUP3 ADD AND DUP3 ADD DUP1 PUSH1 0x40 MSTORE POP DUP2 ADD SWAP1 PUSH3 0x316 SWAP2 SWAP1 PUSH3 0x49A JUMP JUMPDEST PUSH1 0x1 PUSH1 0x1 PUSH1 0x60 SHL SUB NOT PUSH1 0x60 SWAP2 DUP3 SHL DUP2 AND PUSH1 0xA0 MSTORE SWAP1 DUP3 SWAP1 SHL AND PUSH1 0x80 MSTORE PUSH1 0x1 PUSH1 0x4 PUSH1 0x0 PUSH3 0x34A PUSH1 0x0 SLOAD PUSH1 0x1 PUSH1 0x1 PUSH1 0xA0 SHL SUB AND SWAP1 JUMP JUMPDEST PUSH1 0x1 PUSH1 0x1 PUSH1 0xA0 SHL SUB AND DUP2 MSTORE PUSH1 0x20 DUP1 DUP3 ADD SWAP3 SWAP1 SWAP3 MSTORE PUSH1 0x40 SWAP1 DUP2 ADD PUSH1 0x0 SWAP1 DUP2 KECCAK256 DUP1 SLOAD SWAP5 ISZERO ISZERO PUSH1 0xFF NOT SWAP6 DUP7 AND OR SWAP1 SSTORE ADDRESS DUP2 MSTORE PUSH1 0x4 SWAP1 SWAP3 MSTORE SWAP1 KECCAK256 DUP1 SLOAD SWAP1 SWAP2 AND PUSH1 0x1 OR SWAP1 SSTORE PUSH3 0x39D PUSH1 0x0 SLOAD PUSH1 0x1 PUSH1 0x1 PUSH1 0xA0 SHL SUB AND SWAP1 JUMP JUMPDEST PUSH1 0x1 PUSH1 0x1 PUSH1 0xA0 SHL SUB AND PUSH1 0x0 PUSH1 0x1 PUSH1 0x1 PUSH1 0xA0 SHL SUB AND PUSH32 0xDDF252AD1BE2C89B69C2B068FC378DAA952BA7F163C4A11628F55A4DF523B3EF PUSH1 0x7 SLOAD PUSH1 0x40 MLOAD PUSH3 0x3E5 SWAP2 DUP2 MSTORE PUSH1 0x20 ADD SWAP1 JUMP JUMPDEST PUSH1 0x40 MLOAD DUP1 SWAP2 SUB SWAP1 LOG3 POP PUSH3 0x54C JUMP JUMPDEST DUP3 DUP1 SLOAD PUSH3 0x402 SWAP1 PUSH3 0x4EE JUMP JUMPDEST SWAP1 PUSH1 0x0 MSTORE PUSH1 0x20 PUSH1 0x0 KECCAK256 SWAP1 PUSH1 0x1F ADD PUSH1 0x20 SWAP1 DIV DUP2 ADD SWAP3 DUP3 PUSH3 0x426 JUMPI PUSH1 0x0 DUP6 SSTORE PUSH3 0x471 JUMP JUMPDEST DUP3 PUSH1 0x1F LT PUSH3 0x441 JUMPI DUP1 MLOAD PUSH1 0xFF NOT AND DUP4 DUP1 ADD OR DUP6 SSTORE PUSH3 0x471 JUMP JUMPDEST DUP3 DUP1 ADD PUSH1 0x1 ADD DUP6 SSTORE DUP3 ISZERO PUSH3 0x471 JUMPI SWAP2 DUP3 ADD JUMPDEST DUP3 DUP2 GT ISZERO PUSH3 0x471 JUMPI DUP3 MLOAD DUP3 SSTORE SWAP2 PUSH1 0x20 ADD SWAP2 SWAP1 PUSH1 0x1 ADD SWAP1 PUSH3 0x454 JUMP JUMPDEST POP PUSH3 0x47F SWAP3 SWAP2 POP PUSH3 0x483 JUMP JUMPDEST POP SWAP1 JUMP JUMPDEST JUMPDEST DUP1 DUP3 GT ISZERO PUSH3 0x47F JUMPI PUSH1 0x0 DUP2 SSTORE PUSH1 0x1 ADD PUSH3 0x484 JUMP JUMPDEST PUSH1 0x0 PUSH1 0x20 DUP3 DUP5 SUB SLT ISZERO PUSH3 0x4AC JUMPI DUP1 DUP2 REVERT JUMPDEST DUP2 MLOAD PUSH1 0x1 PUSH1 0x1 PUSH1 0xA0 SHL SUB DUP2 AND DUP2 EQ PUSH3 0x4C3 JUMPI DUP2 DUP3 REVERT JUMPDEST SWAP4 SWAP3 POP POP POP JUMP JUMPDEST PUSH1 0x0 DUP3 DUP3 LT ISZERO PUSH3 0x4E9 JUMPI PUSH4 0x4E487B71 PUSH1 0xE0 SHL DUP2 MSTORE PUSH1 0x11 PUSH1 0x4 MSTORE PUSH1 0x24 DUP2 REVERT JUMPDEST POP SUB SWAP1 JUMP JUMPDEST PUSH1 0x1 DUP2 DUP2 SHR SWAP1 DUP3 AND DUP1 PUSH3 0x503 JUMPI PUSH1 0x7F DUP3 AND SWAP2 POP JUMPDEST PUSH1 0x20 DUP3 LT DUP2 EQ ISZERO PUSH3 0x525 JUMPI PUSH4 0x4E487B71 PUSH1 0xE0 SHL PUSH1 0x0 MSTORE PUSH1 0x22 PUSH1 0x4 MSTORE PUSH1 0x24 PUSH1 0x0 REVERT JUMPDEST POP SWAP2 SWAP1 POP JUMP JUMPDEST PUSH1 0x0 DUP3 PUSH3 0x547 JUMPI PUSH4 0x4E487B71 PUSH1 0xE0 SHL DUP2 MSTORE PUSH1 0x12 PUSH1 0x4 MSTORE PUSH1 0x24 DUP2 REVERT JUMPDEST POP MOD SWAP1 JUMP JUMPDEST PUSH1 0x80 MLOAD PUSH1 0x60 SHR PUSH1 0xA0 MLOAD PUSH1 0x60 SHR PUSH2 0x25D8 PUSH3 0x5A9 PUSH1 0x0 CODECOPY PUSH1 0x0 DUP2 DUP2 PUSH2 0x467 ADD MSTORE DUP2 DUP2 PUSH2 0x14F5 ADD MSTORE PUSH2 0x15A1 ADD MSTORE PUSH1 0x0 DUP2 DUP2 PUSH2 0x2D8 ADD MSTORE DUP2 DUP2 PUSH2 0x1BD2 ADD MSTORE DUP2 DUP2 PUSH2 0x1CA8 ADD MSTORE DUP2 DUP2 PUSH2 0x1CE4 ADD MSTORE DUP2 DUP2 PUSH2 0x1D56 ADD MSTORE PUSH2 0x1D7D ADD MSTORE PUSH2 0x25D8 PUSH1 0x0 RETURN INVALID PUSH1 0x80 PUSH1 0x40 MSTORE PUSH1 0x4 CALLDATASIZE LT PUSH2 0x21E JUMPI PUSH1 0x0 CALLDATALOAD PUSH1 0xE0 SHR DUP1 PUSH4 0x52390C02 GT PUSH2 0x123 JUMPI DUP1 PUSH4 0x8DA5CB5B GT PUSH2 0xAB JUMPI DUP1 PUSH4 0xC49B9A80 GT PUSH2 0x6F JUMPI DUP1 PUSH4 0xC49B9A80 EQ PUSH2 0x664 JUMPI DUP1 PUSH4 0xD543DBEB EQ PUSH2 0x684 JUMPI DUP1 PUSH4 0xDD62ED3E EQ PUSH2 0x6A4 JUMPI DUP1 PUSH4 0xEA2F0B37 EQ PUSH2 0x6EA JUMPI DUP1 PUSH4 0xF2FDE38B EQ PUSH2 0x70A JUMPI PUSH1 0x0 DUP1 REVERT JUMPDEST DUP1 PUSH4 0x8DA5CB5B EQ PUSH2 0x5D1 JUMPI DUP1 PUSH4 0x8EE88C53 EQ PUSH2 0x5EF JUMPI DUP1 PUSH4 0x95D89B41 EQ PUSH2 0x60F JUMPI DUP1 PUSH4 0xA457C2D7 EQ PUSH2 0x624 JUMPI DUP1 PUSH4 0xA9059CBB EQ PUSH2 0x644 JUMPI PUSH1 0x0 DUP1 REVERT JUMPDEST DUP1 PUSH4 0x70A08231 GT PUSH2 0xF2 JUMPI DUP1 PUSH4 0x70A08231 EQ PUSH2 0x537 JUMPI DUP1 PUSH4 0x715018A6 EQ PUSH2 0x557 JUMPI DUP1 PUSH4 0x7D1DB4A5 EQ PUSH2 0x56C JUMPI DUP1 PUSH4 0x88790A68 EQ PUSH2 0x582 JUMPI DUP1 PUSH4 0x88F82020 EQ PUSH2 0x598 JUMPI PUSH1 0x0 DUP1 REVERT JUMPDEST DUP1 PUSH4 0x52390C02 EQ PUSH2 0x4A8 JUMPI DUP1 PUSH4 0x5342ACB4 EQ PUSH2 0x4C8 JUMPI DUP1 PUSH4 0x6AC9A870 EQ PUSH2 0x501 JUMPI DUP1 PUSH4 0x6BC87C3A EQ PUSH2 0x521 JUMPI PUSH1 0x0 DUP1 REVERT JUMPDEST DUP1 PUSH4 0x313CE567 GT PUSH2 0x1A6 JUMPI DUP1 PUSH4 0x3BD5D173 GT PUSH2 0x175 JUMPI DUP1 PUSH4 0x3BD5D173 EQ PUSH2 0x3F5 JUMPI DUP1 PUSH4 0x437823EC EQ PUSH2 0x415 JUMPI DUP1 PUSH4 0x4549B039 EQ PUSH2 0x435 JUMPI DUP1 PUSH4 0x49BD5A5E EQ PUSH2 0x455 JUMPI DUP1 PUSH4 0x4A74BB02 EQ PUSH2 0x489 JUMPI PUSH1 0x0 DUP1 REVERT JUMPDEST DUP1 PUSH4 0x313CE567 EQ PUSH2 0x37D JUMPI DUP1 PUSH4 0x3685D419 EQ PUSH2 0x39F JUMPI DUP1 PUSH4 0x39509351 EQ PUSH2 0x3BF JUMPI DUP1 PUSH4 0x3B124FE7 EQ PUSH2 0x3DF JUMPI PUSH1 0x0 DUP1 REVERT JUMPDEST DUP1 PUSH4 0x1694505E GT PUSH2 0x1ED JUMPI DUP1 PUSH4 0x1694505E EQ PUSH2 0x2C6 JUMPI DUP1 PUSH4 0x18160DDD EQ PUSH2 0x312 JUMPI DUP1 PUSH4 0x200A692D EQ PUSH2 0x327 JUMPI DUP1 PUSH4 0x23B872DD EQ PUSH2 0x33D JUMPI DUP1 PUSH4 0x2D838119 EQ PUSH2 0x35D JUMPI PUSH1 0x0 DUP1 REVERT JUMPDEST DUP1 PUSH4 0x61C82D0 EQ PUSH2 0x22A JUMPI DUP1 PUSH4 0x6FDDE03 EQ PUSH2 0x24C JUMPI DUP1 PUSH4 0x95EA7B3 EQ PUSH2 0x277 JUMPI DUP1 PUSH4 0x13114A9D EQ PUSH2 0x2A7 JUMPI PUSH1 0x0 DUP1 REVERT JUMPDEST CALLDATASIZE PUSH2 0x225 JUMPI STOP JUMPDEST PUSH1 0x0 DUP1 REVERT JUMPDEST CALLVALUE DUP1 ISZERO PUSH2 0x236 JUMPI PUSH1 0x0 DUP1 REVERT JUMPDEST POP PUSH2 0x24A PUSH2 0x245 CALLDATASIZE PUSH1 0x4 PUSH2 0x22DA JUMP JUMPDEST PUSH2 0x72A JUMP JUMPDEST STOP JUMPDEST CALLVALUE DUP1 ISZERO PUSH2 0x258 JUMPI PUSH1 0x0 DUP1 REVERT JUMPDEST POP PUSH2 0x261 PUSH2 0x762 JUMP JUMPDEST PUSH1 0x40 MLOAD PUSH2 0x26E SWAP2 SWAP1 PUSH2 0x236B JUMP JUMPDEST PUSH1 0x40 MLOAD DUP1 SWAP2 SUB SWAP1 RETURN JUMPDEST CALLVALUE DUP1 ISZERO PUSH2 0x283 JUMPI PUSH1 0x0 DUP1 REVERT JUMPDEST POP PUSH2 0x297 PUSH2 0x292 CALLDATASIZE PUSH1 0x4 PUSH2 0x2295 JUMP JUMPDEST PUSH2 0x7F4 JUMP JUMPDEST PUSH1 0x40 MLOAD SWAP1 ISZERO ISZERO DUP2 MSTORE PUSH1 0x20 ADD PUSH2 0x26E JUMP JUMPDEST CALLVALUE DUP1 ISZERO PUSH2 0x2B3 JUMPI PUSH1 0x0 DUP1 REVERT JUMPDEST POP PUSH1 0x9 SLOAD JUMPDEST PUSH1 0x40 MLOAD SWAP1 DUP2 MSTORE PUSH1 0x20 ADD PUSH2 0x26E JUMP JUMPDEST CALLVALUE DUP1 ISZERO PUSH2 0x2D2 JUMPI PUSH1 0x0 DUP1 REVERT JUMPDEST POP PUSH2 0x2FA PUSH32 0x0 DUP2 JUMP JUMPDEST PUSH1 0x40 MLOAD PUSH1 0x1 PUSH1 0x1 PUSH1 0xA0 SHL SUB SWAP1 SWAP2 AND DUP2 MSTORE PUSH1 0x20 ADD PUSH2 0x26E JUMP JUMPDEST CALLVALUE DUP1 ISZERO PUSH2 0x31E JUMPI PUSH1 0x0 DUP1 REVERT JUMPDEST POP PUSH1 0x7 SLOAD PUSH2 0x2B8 JUMP JUMPDEST CALLVALUE DUP1 ISZERO PUSH2 0x333 JUMPI PUSH1 0x0 DUP1 REVERT JUMPDEST POP PUSH2 0x2B8 PUSH1 0xD SLOAD DUP2 JUMP JUMPDEST CALLVALUE DUP1 ISZERO PUSH2 0x349 JUMPI PUSH1 0x0 DUP1 REVERT JUMPDEST POP PUSH2 0x297 PUSH2 0x358 CALLDATASIZE PUSH1 0x4 PUSH2 0x2255 JUMP JUMPDEST PUSH2 0x80B JUMP JUMPDEST CALLVALUE DUP1 ISZERO PUSH2 0x369 JUMPI PUSH1 0x0 DUP1 REVERT JUMPDEST POP PUSH2 0x2B8 PUSH2 0x378 CALLDATASIZE PUSH1 0x4 PUSH2 0x22DA JUMP JUMPDEST PUSH2 0x874 JUMP JUMPDEST CALLVALUE DUP1 ISZERO PUSH2 0x389 JUMPI PUSH1 0x0 DUP1 REVERT JUMPDEST POP PUSH1 0xC SLOAD PUSH1 0x40 MLOAD PUSH1 0xFF SWAP1 SWAP2 AND DUP2 MSTORE PUSH1 0x20 ADD PUSH2 0x26E JUMP JUMPDEST CALLVALUE DUP1 ISZERO PUSH2 0x3AB JUMPI PUSH1 0x0 DUP1 REVERT JUMPDEST POP PUSH2 0x24A PUSH2 0x3BA CALLDATASIZE PUSH1 0x4 PUSH2 0x21E5 JUMP JUMPDEST PUSH2 0x8F8 JUMP JUMPDEST CALLVALUE DUP1 ISZERO PUSH2 0x3CB JUMPI PUSH1 0x0 DUP1 REVERT JUMPDEST POP PUSH2 0x297 PUSH2 0x3DA CALLDATASIZE PUSH1 0x4 PUSH2 0x2295 JUMP JUMPDEST PUSH2 0xAE7 JUMP JUMPDEST CALLVALUE DUP1 ISZERO PUSH2 0x3EB JUMPI PUSH1 0x0 DUP1 REVERT JUMPDEST POP PUSH2 0x2B8 PUSH1 0xF SLOAD DUP2 JUMP JUMPDEST CALLVALUE DUP1 ISZERO PUSH2 0x401 JUMPI PUSH1 0x0 DUP1 REVERT JUMPDEST POP PUSH2 0x24A PUSH2 0x410 CALLDATASIZE PUSH1 0x4 PUSH2 0x22DA JUMP JUMPDEST PUSH2 0xB1D JUMP JUMPDEST CALLVALUE DUP1 ISZERO PUSH2 0x421 JUMPI PUSH1 0x0 DUP1 REVERT JUMPDEST POP PUSH2 0x24A PUSH2 0x430 CALLDATASIZE PUSH1 0x4 PUSH2 0x21E5 JUMP JUMPDEST PUSH2 0xC07 JUMP JUMPDEST CALLVALUE DUP1 ISZERO PUSH2 0x441 JUMPI PUSH1 0x0 DUP1 REVERT JUMPDEST POP PUSH2 0x2B8 PUSH2 0x450 CALLDATASIZE PUSH1 0x4 PUSH2 0x22F2 JUMP JUMPDEST PUSH2 0xC55 JUMP JUMPDEST CALLVALUE DUP1 ISZERO PUSH2 0x461 JUMPI PUSH1 0x0 DUP1 REVERT JUMPDEST POP PUSH2 0x2FA PUSH32 0x0 DUP2 JUMP JUMPDEST CALLVALUE DUP1 ISZERO PUSH2 0x495 JUMPI PUSH1 0x0 DUP1 REVERT JUMPDEST POP PUSH1 0x13 SLOAD PUSH2 0x297 SWAP1 PUSH2 0x100 SWAP1 DIV PUSH1 0xFF AND DUP2 JUMP JUMPDEST CALLVALUE DUP1 ISZERO PUSH2 0x4B4 JUMPI PUSH1 0x0 DUP1 REVERT JUMPDEST POP PUSH2 0x24A PUSH2 0x4C3 CALLDATASIZE PUSH1 0x4 PUSH2 0x21E5 JUMP JUMPDEST PUSH2 0xCE2 JUMP JUMPDEST CALLVALUE DUP1 ISZERO PUSH2 0x4D4 JUMPI PUSH1 0x0 DUP1 REVERT JUMPDEST POP PUSH2 0x297 PUSH2 0x4E3 CALLDATASIZE PUSH1 0x4 PUSH2 0x21E5 JUMP JUMPDEST PUSH1 0x1 PUSH1 0x1 PUSH1 0xA0 SHL SUB AND PUSH1 0x0 SWAP1 DUP2 MSTORE PUSH1 0x4 PUSH1 0x20 MSTORE PUSH1 0x40 SWAP1 KECCAK256 SLOAD PUSH1 0xFF AND SWAP1 JUMP JUMPDEST CALLVALUE DUP1 ISZERO PUSH2 0x50D JUMPI PUSH1 0x0 DUP1 REVERT JUMPDEST POP PUSH2 0x24A PUSH2 0x51C CALLDATASIZE PUSH1 0x4 PUSH2 0x231D JUMP JUMPDEST PUSH2 0xE35 JUMP JUMPDEST CALLVALUE DUP1 ISZERO PUSH2 0x52D JUMPI PUSH1 0x0 DUP1 REVERT JUMPDEST POP PUSH2 0x2B8 PUSH1 0x11 SLOAD DUP2 JUMP JUMPDEST CALLVALUE DUP1 ISZERO PUSH2 0x543 JUMPI PUSH1 0x0 DUP1 REVERT JUMPDEST POP PUSH2 0x2B8 PUSH2 0x552 CALLDATASIZE PUSH1 0x4 PUSH2 0x21E5 JUMP JUMPDEST PUSH2 0xE6A JUMP JUMPDEST CALLVALUE DUP1 ISZERO PUSH2 0x563 JUMPI PUSH1 0x0 DUP1 REVERT JUMPDEST POP PUSH2 0x24A PUSH2 0xEC9 JUMP JUMPDEST CALLVALUE DUP1 ISZERO PUSH2 0x578 JUMPI PUSH1 0x0 DUP1 REVERT JUMPDEST POP PUSH2 0x2B8 PUSH1 0x14 SLOAD DUP2 JUMP JUMPDEST CALLVALUE DUP1 ISZERO PUSH2 0x58E JUMPI PUSH1 0x0 DUP1 REVERT JUMPDEST POP PUSH2 0x2B8 PUSH1 0xE SLOAD DUP2 JUMP JUMPDEST CALLVALUE DUP1 ISZERO PUSH2 0x5A4 JUMPI PUSH1 0x0 DUP1 REVERT JUMPDEST POP PUSH2 0x297 PUSH2 0x5B3 CALLDATASIZE PUSH1 0x4 PUSH2 0x21E5 JUMP JUMPDEST PUSH1 0x1 PUSH1 0x1 PUSH1 0xA0 SHL SUB AND PUSH1 0x0 SWAP1 DUP2 MSTORE PUSH1 0x5 PUSH1 0x20 MSTORE PUSH1 0x40 SWAP1 KECCAK256 SLOAD PUSH1 0xFF AND SWAP1 JUMP JUMPDEST CALLVALUE DUP1 ISZERO PUSH2 0x5DD JUMPI PUSH1 0x0 DUP1 REVERT JUMPDEST POP PUSH1 0x0 SLOAD PUSH1 0x1 PUSH1 0x1 PUSH1 0xA0 SHL SUB AND PUSH2 0x2FA JUMP JUMPDEST CALLVALUE DUP1 ISZERO PUSH2 0x5FB JUMPI PUSH1 0x0 DUP1 REVERT JUMPDEST POP PUSH2 0x24A PUSH2 0x60A CALLDATASIZE PUSH1 0x4 PUSH2 0x22DA JUMP JUMPDEST PUSH2 0xF3D JUMP JUMPDEST CALLVALUE DUP1 ISZERO PUSH2 0x61B JUMPI PUSH1 0x0 DUP1 REVERT JUMPDEST POP PUSH2 0x261 PUSH2 0xF6C JUMP JUMPDEST CALLVALUE DUP1 ISZERO PUSH2 0x630 JUMPI PUSH1 0x0 DUP1 REVERT JUMPDEST POP PUSH2 0x297 PUSH2 0x63F CALLDATASIZE PUSH1 0x4 PUSH2 0x2295 JUMP JUMPDEST PUSH2 0xF7B JUMP JUMPDEST CALLVALUE DUP1 ISZERO PUSH2 0x650 JUMPI PUSH1 0x0 DUP1 REVERT JUMPDEST POP PUSH2 0x297 PUSH2 0x65F CALLDATASIZE PUSH1 0x4 PUSH2 0x2295 JUMP JUMPDEST PUSH2 0xFCA JUMP JUMPDEST CALLVALUE DUP1 ISZERO PUSH2 0x670 JUMPI PUSH1 0x0 DUP1 REVERT JUMPDEST POP PUSH2 0x24A PUSH2 0x67F CALLDATASIZE PUSH1 0x4 PUSH2 0x22C0 JUMP JUMPDEST PUSH2 0xFD7 JUMP JUMPDEST CALLVALUE DUP1 ISZERO PUSH2 0x690 JUMPI PUSH1 0x0 DUP1 REVERT JUMPDEST POP PUSH2 0x24A PUSH2 0x69F CALLDATASIZE PUSH1 0x4 PUSH2 0x22DA JUMP JUMPDEST PUSH2 0x1055 JUMP JUMPDEST CALLVALUE DUP1 ISZERO PUSH2 0x6B0 JUMPI PUSH1 0x0 DUP1 REVERT JUMPDEST POP PUSH2 0x2B8 PUSH2 0x6BF CALLDATASIZE PUSH1 0x4 PUSH2 0x221D JUMP JUMPDEST PUSH1 0x1 PUSH1 0x1 PUSH1 0xA0 SHL SUB SWAP2 DUP3 AND PUSH1 0x0 SWAP1 DUP2 MSTORE PUSH1 0x3 PUSH1 0x20 SWAP1 DUP2 MSTORE PUSH1 0x40 DUP1 DUP4 KECCAK256 SWAP4 SWAP1 SWAP5 AND DUP3 MSTORE SWAP2 SWAP1 SWAP2 MSTORE KECCAK256 SLOAD SWAP1 JUMP JUMPDEST CALLVALUE DUP1 ISZERO PUSH2 0x6F6 JUMPI PUSH1 0x0 DUP1 REVERT JUMPDEST POP PUSH2 0x24A PUSH2 0x705 CALLDATASIZE PUSH1 0x4 PUSH2 0x21E5 JUMP JUMPDEST PUSH2 0x10A5 JUMP JUMPDEST CALLVALUE DUP1 ISZERO PUSH2 0x716 JUMPI PUSH1 0x0 DUP1 REVERT JUMPDEST POP PUSH2 0x24A PUSH2 0x725 CALLDATASIZE PUSH1 0x4 PUSH2 0x21E5 JUMP JUMPDEST PUSH2 0x10F0 JUMP JUMPDEST PUSH1 0x0 SLOAD PUSH1 0x1 PUSH1 0x1 PUSH1 0xA0 SHL SUB AND CALLER EQ PUSH2 0x75D JUMPI PUSH1 0x40 MLOAD PUSH3 0x461BCD PUSH1 0xE5 SHL DUP2 MSTORE PUSH1 0x4 ADD PUSH2 0x754 SWAP1 PUSH2 0x23BE JUMP JUMPDEST PUSH1 0x40 MLOAD DUP1 SWAP2 SUB SWAP1 REVERT JUMPDEST PUSH1 0xF SSTORE JUMP JUMPDEST PUSH1 0x60 PUSH1 0xA DUP1 SLOAD PUSH2 0x771 SWAP1 PUSH2 0x24D1 JUMP JUMPDEST DUP1 PUSH1 0x1F ADD PUSH1 0x20 DUP1 SWAP2 DIV MUL PUSH1 0x20 ADD PUSH1 0x40 MLOAD SWAP1 DUP2 ADD PUSH1 0x40 MSTORE DUP1 SWAP3 SWAP2 SWAP1 DUP2 DUP2 MSTORE PUSH1 0x20 ADD DUP3 DUP1 SLOAD PUSH2 0x79D SWAP1 PUSH2 0x24D1 JUMP JUMPDEST DUP1 ISZERO PUSH2 0x7EA JUMPI DUP1 PUSH1 0x1F LT PUSH2 0x7BF JUMPI PUSH2 0x100 DUP1 DUP4 SLOAD DIV MUL DUP4 MSTORE SWAP2 PUSH1 0x20 ADD SWAP2 PUSH2 0x7EA JUMP JUMPDEST DUP3 ADD SWAP2 SWAP1 PUSH1 0x0 MSTORE PUSH1 0x20 PUSH1 0x0 KECCAK256 SWAP1 JUMPDEST DUP2 SLOAD DUP2 MSTORE SWAP1 PUSH1 0x1 ADD SWAP1 PUSH1 0x20 ADD DUP1 DUP4 GT PUSH2 0x7CD JUMPI DUP3 SWAP1 SUB PUSH1 0x1F AND DUP3 ADD SWAP2 JUMPDEST POP POP POP POP POP SWAP1 POP SWAP1 JUMP JUMPDEST PUSH1 0x0 PUSH2 0x801 CALLER DUP5 DUP5 PUSH2 0x11DA JUMP JUMPDEST POP PUSH1 0x1 JUMPDEST SWAP3 SWAP2 POP POP JUMP JUMPDEST PUSH1 0x0 PUSH2 0x818 DUP5 DUP5 DUP5 PUSH2 0x12FE JUMP JUMPDEST PUSH2 0x86A DUP5 CALLER PUSH2 0x865 DUP6 PUSH1 0x40 MLOAD DUP1 PUSH1 0x60 ADD PUSH1 0x40 MSTORE DUP1 PUSH1 0x28 DUP2 MSTORE PUSH1 0x20 ADD PUSH2 0x2556 PUSH1 0x28 SWAP2 CODECOPY PUSH1 0x1 PUSH1 0x1 PUSH1 0xA0 SHL SUB DUP11 AND PUSH1 0x0 SWAP1 DUP2 MSTORE PUSH1 0x3 PUSH1 0x20 SWAP1 DUP2 MSTORE PUSH1 0x40 DUP1 DUP4 KECCAK256 CALLER DUP5 MSTORE SWAP1 SWAP2 MSTORE SWAP1 KECCAK256 SLOAD SWAP2 SWAP1 PUSH2 0x160A JUMP JUMPDEST PUSH2 0x11DA JUMP JUMPDEST POP PUSH1 0x1 SWAP4 SWAP3 POP POP POP JUMP JUMPDEST PUSH1 0x0 PUSH1 0x8 SLOAD DUP3 GT ISZERO PUSH2 0x8DB JUMPI PUSH1 0x40 MLOAD PUSH3 0x461BCD PUSH1 0xE5 SHL DUP2 MSTORE PUSH1 0x20 PUSH1 0x4 DUP3 ADD MSTORE PUSH1 0x2A PUSH1 0x24 DUP3 ADD MSTORE PUSH32 0x416D6F756E74206D757374206265206C657373207468616E20746F74616C2072 PUSH1 0x44 DUP3 ADD MSTORE PUSH10 0x65666C656374696F6E73 PUSH1 0xB0 SHL PUSH1 0x64 DUP3 ADD MSTORE PUSH1 0x84 ADD PUSH2 0x754 JUMP JUMPDEST PUSH1 0x0 PUSH2 0x8E5 PUSH2 0x1636 JUMP JUMPDEST SWAP1 POP PUSH2 0x8F1 DUP4 DUP3 PUSH2 0x1659 JUMP JUMPDEST SWAP4 SWAP3 POP POP POP JUMP JUMPDEST PUSH1 0x0 SLOAD PUSH1 0x1 PUSH1 0x1 PUSH1 0xA0 SHL SUB AND CALLER EQ PUSH2 0x922 JUMPI PUSH1 0x40 MLOAD PUSH3 0x461BCD PUSH1 0xE5 SHL DUP2 MSTORE PUSH1 0x4 ADD PUSH2 0x754 SWAP1 PUSH2 0x23BE JUMP JUMPDEST PUSH1 0x1 PUSH1 0x1 PUSH1 0xA0 SHL SUB DUP2 AND PUSH1 0x0 SWAP1 DUP2 MSTORE PUSH1 0x5 PUSH1 0x20 MSTORE PUSH1 0x40 SWAP1 KECCAK256 SLOAD PUSH1 0xFF AND PUSH2 0x98A JUMPI PUSH1 0x40 MLOAD PUSH3 0x461BCD PUSH1 0xE5 SHL DUP2 MSTORE PUSH1 0x20 PUSH1 0x4 DUP3 ADD MSTORE PUSH1 0x1B PUSH1 0x24 DUP3 ADD MSTORE PUSH32 0x4163636F756E7420697320616C726561647920696E636C756465640000000000 PUSH1 0x44 DUP3 ADD MSTORE PUSH1 0x64 ADD PUSH2 0x754 JUMP JUMPDEST PUSH1 0x0 JUMPDEST PUSH1 0x6 SLOAD DUP2 LT ISZERO PUSH2 0xAE3 JUMPI DUP2 PUSH1 0x1 PUSH1 0x1 PUSH1 0xA0 SHL SUB AND PUSH1 0x6 DUP3 DUP2 SLOAD DUP2 LT PUSH2 0x9C2 JUMPI PUSH4 0x4E487B71 PUSH1 0xE0 SHL PUSH1 0x0 MSTORE PUSH1 0x32 PUSH1 0x4 MSTORE PUSH1 0x24 PUSH1 0x0 REVERT JUMPDEST PUSH1 0x0 SWAP2 DUP3 MSTORE PUSH1 0x20 SWAP1 SWAP2 KECCAK256 ADD SLOAD PUSH1 0x1 PUSH1 0x1 PUSH1 0xA0 SHL SUB AND EQ ISZERO PUSH2 0xAD1 JUMPI PUSH1 0x6 DUP1 SLOAD PUSH2 0x9ED SWAP1 PUSH1 0x1 SWAP1 PUSH2 0x24BA JUMP JUMPDEST DUP2 SLOAD DUP2 LT PUSH2 0xA0B JUMPI PUSH4 0x4E487B71 PUSH1 0xE0 SHL PUSH1 0x0 MSTORE PUSH1 0x32 PUSH1 0x4 MSTORE PUSH1 0x24 PUSH1 0x0 REVERT JUMPDEST PUSH1 0x0 SWAP2 DUP3 MSTORE PUSH1 0x20 SWAP1 SWAP2 KECCAK256 ADD SLOAD PUSH1 0x6 DUP1 SLOAD PUSH1 0x1 PUSH1 0x1 PUSH1 0xA0 SHL SUB SWAP1 SWAP3 AND SWAP2 DUP4 SWAP1 DUP2 LT PUSH2 0xA45 JUMPI PUSH4 0x4E487B71 PUSH1 0xE0 SHL PUSH1 0x0 MSTORE PUSH1 0x32 PUSH1 0x4 MSTORE PUSH1 0x24 PUSH1 0x0 REVERT JUMPDEST PUSH1 0x0 SWAP2 DUP3 MSTORE PUSH1 0x20 DUP1 DUP4 KECCAK256 SWAP2 SWAP1 SWAP2 ADD DUP1 SLOAD PUSH1 0x1 PUSH1 0x1 PUSH1 0xA0 SHL SUB NOT AND PUSH1 0x1 PUSH1 0x1 PUSH1 0xA0 SHL SUB SWAP5 DUP6 AND OR SWAP1 SSTORE SWAP2 DUP5 AND DUP2 MSTORE PUSH1 0x2 DUP3 MSTORE PUSH1 0x40 DUP1 DUP3 KECCAK256 DUP3 SWAP1 SSTORE PUSH1 0x5 SWAP1 SWAP3 MSTORE KECCAK256 DUP1 SLOAD PUSH1 0xFF NOT AND SWAP1 SSTORE PUSH1 0x6 DUP1 SLOAD DUP1 PUSH2 0xAAB JUMPI PUSH4 0x4E487B71 PUSH1 0xE0 SHL PUSH1 0x0 MSTORE PUSH1 0x31 PUSH1 0x4 MSTORE PUSH1 0x24 PUSH1 0x0 REVERT JUMPDEST PUSH1 0x0 DUP3 DUP2 MSTORE PUSH1 0x20 SWAP1 KECCAK256 DUP2 ADD PUSH1 0x0 NOT SWAP1 DUP2 ADD DUP1 SLOAD PUSH1 0x1 PUSH1 0x1 PUSH1 0xA0 SHL SUB NOT AND SWAP1 SSTORE ADD SWAP1 SSTORE POP POP JUMP JUMPDEST DUP1 PUSH2 0xADB DUP2 PUSH2 0x250C JUMP JUMPDEST SWAP2 POP POP PUSH2 0x98D JUMP JUMPDEST POP POP JUMP JUMPDEST CALLER PUSH1 0x0 DUP2 DUP2 MSTORE PUSH1 0x3 PUSH1 0x20 SWAP1 DUP2 MSTORE PUSH1 0x40 DUP1 DUP4 KECCAK256 PUSH1 0x1 PUSH1 0x1 PUSH1 0xA0 SHL SUB DUP8 AND DUP5 MSTORE SWAP1 SWAP2 MSTORE DUP2 KECCAK256 SLOAD SWAP1 SWAP2 PUSH2 0x801 SWAP2 DUP6 SWAP1 PUSH2 0x865 SWAP1 DUP7 PUSH2 0x1665 JUMP JUMPDEST CALLER PUSH1 0x0 DUP2 DUP2 MSTORE PUSH1 0x5 PUSH1 0x20 MSTORE PUSH1 0x40 SWAP1 KECCAK256 SLOAD PUSH1 0xFF AND ISZERO PUSH2 0xB92 JUMPI PUSH1 0x40 MLOAD PUSH3 0x461BCD PUSH1 0xE5 SHL DUP2 MSTORE PUSH1 0x20 PUSH1 0x4 DUP3 ADD MSTORE PUSH1 0x2C PUSH1 0x24 DUP3 ADD MSTORE PUSH32 0x4578636C75646564206164647265737365732063616E6E6F742063616C6C2074 PUSH1 0x44 DUP3 ADD MSTORE PUSH12 0x3434B990333AB731BA34B7B7 PUSH1 0xA1 SHL PUSH1 0x64 DUP3 ADD MSTORE PUSH1 0x84 ADD PUSH2 0x754 JUMP JUMPDEST PUSH1 0x0 PUSH2 0xB9D DUP4 PUSH2 0x1671 JUMP JUMPDEST POP POP POP POP PUSH1 0x1 PUSH1 0x1 PUSH1 0xA0 SHL SUB DUP5 AND PUSH1 0x0 SWAP1 DUP2 MSTORE PUSH1 0x1 PUSH1 0x20 MSTORE PUSH1 0x40 SWAP1 KECCAK256 SLOAD SWAP2 SWAP3 POP PUSH2 0xBC9 SWAP2 SWAP1 POP DUP3 PUSH2 0x16C0 JUMP JUMPDEST PUSH1 0x1 PUSH1 0x1 PUSH1 0xA0 SHL SUB DUP4 AND PUSH1 0x0 SWAP1 DUP2 MSTORE PUSH1 0x1 PUSH1 0x20 MSTORE PUSH1 0x40 SWAP1 KECCAK256 SSTORE PUSH1 0x8 SLOAD PUSH2 0xBEF SWAP1 DUP3 PUSH2 0x16C0 JUMP JUMPDEST PUSH1 0x8 SSTORE PUSH1 0x9 SLOAD PUSH2 0xBFF SWAP1 DUP5 PUSH2 0x1665 JUMP JUMPDEST PUSH1 0x9 SSTORE POP POP POP JUMP JUMPDEST PUSH1 0x0 SLOAD PUSH1 0x1 PUSH1 0x1 PUSH1 0xA0 SHL SUB AND CALLER EQ PUSH2 0xC31 JUMPI PUSH1 0x40 MLOAD PUSH3 0x461BCD PUSH1 0xE5 SHL DUP2 MSTORE PUSH1 0x4 ADD PUSH2 0x754 SWAP1 PUSH2 0x23BE JUMP JUMPDEST PUSH1 0x1 PUSH1 0x1 PUSH1 0xA0 SHL SUB AND PUSH1 0x0 SWAP1 DUP2 MSTORE PUSH1 0x4 PUSH1 0x20 MSTORE PUSH1 0x40 SWAP1 KECCAK256 DUP1 SLOAD PUSH1 0xFF NOT AND PUSH1 0x1 OR SWAP1 SSTORE JUMP JUMPDEST PUSH1 0x0 PUSH1 0x7 SLOAD DUP4 GT ISZERO PUSH2 0xCA9 JUMPI PUSH1 0x40 MLOAD PUSH3 0x461BCD PUSH1 0xE5 SHL DUP2 MSTORE PUSH1 0x20 PUSH1 0x4 DUP3 ADD MSTORE PUSH1 0x1F PUSH1 0x24 DUP3 ADD MSTORE PUSH32 0x416D6F756E74206D757374206265206C657373207468616E20737570706C7900 PUSH1 0x44 DUP3 ADD MSTORE PUSH1 0x64 ADD PUSH2 0x754 JUMP JUMPDEST DUP2 PUSH2 0xCC8 JUMPI PUSH1 0x0 PUSH2 0xCB9 DUP5 PUSH2 0x1671 JUMP JUMPDEST POP SWAP4 SWAP6 POP PUSH2 0x805 SWAP5 POP POP POP POP POP JUMP JUMPDEST PUSH1 0x0 PUSH2 0xCD3 DUP5 PUSH2 0x1671 JUMP JUMPDEST POP SWAP3 SWAP6 POP PUSH2 0x805 SWAP5 POP POP POP POP POP JUMP JUMPDEST PUSH1 0x0 SLOAD PUSH1 0x1 PUSH1 0x1 PUSH1 0xA0 SHL SUB AND CALLER EQ PUSH2 0xD0C JUMPI PUSH1 0x40 MLOAD PUSH3 0x461BCD PUSH1 0xE5 SHL DUP2 MSTORE PUSH1 0x4 ADD PUSH2 0x754 SWAP1 PUSH2 0x23BE JUMP JUMPDEST PUSH1 0x1 PUSH1 0x1 PUSH1 0xA0 SHL SUB DUP2 AND PUSH1 0x0 SWAP1 DUP2 MSTORE PUSH1 0x5 PUSH1 0x20 MSTORE PUSH1 0x40 SWAP1 KECCAK256 SLOAD PUSH1 0xFF AND ISZERO PUSH2 0xD75 JUMPI PUSH1 0x40 MLOAD PUSH3 0x461BCD PUSH1 0xE5 SHL DUP2 MSTORE PUSH1 0x20 PUSH1 0x4 DUP3 ADD MSTORE PUSH1 0x1B PUSH1 0x24 DUP3 ADD MSTORE PUSH32 0x4163636F756E7420697320616C7265616479206578636C756465640000000000 PUSH1 0x44 DUP3 ADD MSTORE PUSH1 0x64 ADD PUSH2 0x754 JUMP JUMPDEST PUSH1 0x1 PUSH1 0x1 PUSH1 0xA0 SHL SUB DUP2 AND PUSH1 0x0 SWAP1 DUP2 MSTORE PUSH1 0x1 PUSH1 0x20 MSTORE PUSH1 0x40 SWAP1 KECCAK256 SLOAD ISZERO PUSH2 0xDCF JUMPI PUSH1 0x1 PUSH1 0x1 PUSH1 0xA0 SHL SUB DUP2 AND PUSH1 0x0 SWAP1 DUP2 MSTORE PUSH1 0x1 PUSH1 0x20 MSTORE PUSH1 0x40 SWAP1 KECCAK256 SLOAD PUSH2 0xDB5 SWAP1 PUSH2 0x874 JUMP JUMPDEST PUSH1 0x1 PUSH1 0x1 PUSH1 0xA0 SHL SUB DUP3 AND PUSH1 0x0 SWAP1 DUP2 MSTORE PUSH1 0x2 PUSH1 0x20 MSTORE PUSH1 0x40 SWAP1 KECCAK256 SSTORE JUMPDEST PUSH1 0x1 PUSH1 0x1 PUSH1 0xA0 SHL SUB AND PUSH1 0x0 DUP2 DUP2 MSTORE PUSH1 0x5 PUSH1 0x20 MSTORE PUSH1 0x40 DUP2 KECCAK256 DUP1 SLOAD PUSH1 0xFF NOT AND PUSH1 0x1 SWAP1 DUP2 OR SWAP1 SWAP2 SSTORE PUSH1 0x6 DUP1 SLOAD SWAP2 DUP3 ADD DUP2 SSTORE SWAP1 SWAP2 MSTORE PUSH32 0xF652222313E28459528D920B65115C16C04F3EFC82AAEDC97BE59F3F377C0D3F ADD DUP1 SLOAD PUSH1 0x1 PUSH1 0x1 PUSH1 0xA0 SHL SUB NOT AND SWAP1 SWAP2 OR SWAP1 SSTORE JUMP JUMPDEST PUSH1 0x0 SLOAD PUSH1 0x1 PUSH1 0x1 PUSH1 0xA0 SHL SUB AND CALLER EQ PUSH2 0xE5F JUMPI PUSH1 0x40 MLOAD PUSH3 0x461BCD PUSH1 0xE5 SHL DUP2 MSTORE PUSH1 0x4 ADD PUSH2 0x754 SWAP1 PUSH2 0x23BE JUMP JUMPDEST PUSH1 0xD SWAP2 SWAP1 SWAP2 SSTORE PUSH1 0xE SSTORE JUMP JUMPDEST PUSH1 0x1 PUSH1 0x1 PUSH1 0xA0 SHL SUB DUP2 AND PUSH1 0x0 SWAP1 DUP2 MSTORE PUSH1 0x5 PUSH1 0x20 MSTORE PUSH1 0x40 DUP2 KECCAK256 SLOAD PUSH1 0xFF AND ISZERO PUSH2 0xEA7 JUMPI POP PUSH1 0x1 PUSH1 0x1 PUSH1 0xA0 SHL SUB AND PUSH1 0x0 SWAP1 DUP2 MSTORE PUSH1 0x2 PUSH1 0x20 MSTORE PUSH1 0x40 SWAP1 KECCAK256 SLOAD SWAP1 JUMP JUMPDEST PUSH1 0x1 PUSH1 0x1 PUSH1 0xA0 SHL SUB DUP3 AND PUSH1 0x0 SWAP1 DUP2 MSTORE PUSH1 0x1 PUSH1 0x20 MSTORE PUSH1 0x40 SWAP1 KECCAK256 SLOAD PUSH2 0x805 SWAP1 PUSH2 0x874 JUMP JUMPDEST PUSH1 0x0 SLOAD PUSH1 0x1 PUSH1 0x1 PUSH1 0xA0 SHL SUB AND CALLER EQ PUSH2 0xEF3 JUMPI PUSH1 0x40 MLOAD PUSH3 0x461BCD PUSH1 0xE5 SHL DUP2 MSTORE PUSH1 0x4 ADD PUSH2 0x754 SWAP1 PUSH2 0x23BE JUMP JUMPDEST PUSH1 0x0 DUP1 SLOAD PUSH1 0x40 MLOAD PUSH1 0x1 PUSH1 0x1 PUSH1 0xA0 SHL SUB SWAP1 SWAP2 AND SWAP1 PUSH32 0x8BE0079C531659141344CD1FD0A4F28419497F9722A3DAAFE3B4186F6B6457E0 SWAP1 DUP4 SWAP1 LOG3 PUSH1 0x0 DUP1 SLOAD PUSH1 0x1 PUSH1 0x1 PUSH1 0xA0 SHL SUB NOT AND SWAP1 SSTORE JUMP JUMPDEST PUSH1 0x0 SLOAD PUSH1 0x1 PUSH1 0x1 PUSH1 0xA0 SHL SUB AND CALLER EQ PUSH2 0xF67 JUMPI PUSH1 0x40 MLOAD PUSH3 0x461BCD PUSH1 0xE5 SHL DUP2 MSTORE PUSH1 0x4 ADD PUSH2 0x754 SWAP1 PUSH2 0x23BE JUMP JUMPDEST PUSH1 0x11 SSTORE JUMP JUMPDEST PUSH1 0x60 PUSH1 0xB DUP1 SLOAD PUSH2 0x771 SWAP1 PUSH2 0x24D1 JUMP JUMPDEST PUSH1 0x0 PUSH2 0x801 CALLER DUP5 PUSH2 0x865 DUP6 PUSH1 0x40 MLOAD DUP1 PUSH1 0x60 ADD PUSH1 0x40 MSTORE DUP1 PUSH1 0x25 DUP2 MSTORE PUSH1 0x20 ADD PUSH2 0x257E PUSH1 0x25 SWAP2 CODECOPY CALLER PUSH1 0x0 SWAP1 DUP2 MSTORE PUSH1 0x3 PUSH1 0x20 SWAP1 DUP2 MSTORE PUSH1 0x40 DUP1 DUP4 KECCAK256 PUSH1 0x1 PUSH1 0x1 PUSH1 0xA0 SHL SUB DUP14 AND DUP5 MSTORE SWAP1 SWAP2 MSTORE SWAP1 KECCAK256 SLOAD SWAP2 SWAP1 PUSH2 0x160A JUMP JUMPDEST PUSH1 0x0 PUSH2 0x801 CALLER DUP5 DUP5 PUSH2 0x12FE JUMP JUMPDEST PUSH1 0x0 SLOAD PUSH1 0x1 PUSH1 0x1 PUSH1 0xA0 SHL SUB AND CALLER EQ PUSH2 0x1001 JUMPI PUSH1 0x40 MLOAD PUSH3 0x461BCD PUSH1 0xE5 SHL DUP2 MSTORE PUSH1 0x4 ADD PUSH2 0x754 SWAP1 PUSH2 0x23BE JUMP JUMPDEST PUSH1 0x13 DUP1 SLOAD DUP3 ISZERO ISZERO PUSH2 0x100 MUL PUSH2 0xFF00 NOT SWAP1 SWAP2 AND OR SWAP1 SSTORE PUSH1 0x40 MLOAD PUSH32 0x53726DFCAF90650AA7EB35524F4D3220F07413C8D6CB404CC8C18BF5591BC159 SWAP1 PUSH2 0x104A SWAP1 DUP4 ISZERO ISZERO DUP2 MSTORE PUSH1 0x20 ADD SWAP1 JUMP JUMPDEST PUSH1 0x40 MLOAD DUP1 SWAP2 SUB SWAP1 LOG1 POP JUMP JUMPDEST PUSH1 0x0 SLOAD PUSH1 0x1 PUSH1 0x1 PUSH1 0xA0 SHL SUB AND CALLER EQ PUSH2 0x107F JUMPI PUSH1 0x40 MLOAD PUSH3 0x461BCD PUSH1 0xE5 SHL DUP2 MSTORE PUSH1 0x4 ADD PUSH2 0x754 SWAP1 PUSH2 0x23BE JUMP JUMPDEST PUSH2 0x109F PUSH1 0x64 PUSH2 0x1099 DUP4 PUSH1 0x7 SLOAD PUSH2 0x16CC SWAP1 SWAP2 SWAP1 PUSH4 0xFFFFFFFF AND JUMP JUMPDEST SWAP1 PUSH2 0x1659 JUMP JUMPDEST PUSH1 0x14 SSTORE POP JUMP JUMPDEST PUSH1 0x0 SLOAD PUSH1 0x1 PUSH1 0x1 PUSH1 0xA0 SHL SUB AND CALLER EQ PUSH2 0x10CF JUMPI PUSH1 0x40 MLOAD PUSH3 0x461BCD PUSH1 0xE5 SHL DUP2 MSTORE PUSH1 0x4 ADD PUSH2 0x754 SWAP1 PUSH2 0x23BE JUMP JUMPDEST PUSH1 0x1 PUSH1 0x1 PUSH1 0xA0 SHL SUB AND PUSH1 0x0 SWAP1 DUP2 MSTORE PUSH1 0x4 PUSH1 0x20 MSTORE PUSH1 0x40 SWAP1 KECCAK256 DUP1 SLOAD PUSH1 0xFF NOT AND SWAP1 SSTORE JUMP JUMPDEST PUSH1 0x0 SLOAD PUSH1 0x1 PUSH1 0x1 PUSH1 0xA0 SHL SUB AND CALLER EQ PUSH2 0x111A JUMPI PUSH1 0x40 MLOAD PUSH3 0x461BCD PUSH1 0xE5 SHL DUP2 MSTORE PUSH1 0x4 ADD PUSH2 0x754 SWAP1 PUSH2 0x23BE JUMP JUMPDEST PUSH1 0x1 PUSH1 0x1 PUSH1 0xA0 SHL SUB DUP2 AND PUSH2 0x117F JUMPI PUSH1 0x40 MLOAD PUSH3 0x461BCD PUSH1 0xE5 SHL DUP2 MSTORE PUSH1 0x20 PUSH1 0x4 DUP3 ADD MSTORE PUSH1 0x26 PUSH1 0x24 DUP3 ADD MSTORE PUSH32 0x4F776E61626C653A206E6577206F776E657220697320746865207A65726F2061 PUSH1 0x44 DUP3 ADD MSTORE PUSH6 0x646472657373 PUSH1 0xD0 SHL PUSH1 0x64 DUP3 ADD MSTORE PUSH1 0x84 ADD PUSH2 0x754 JUMP JUMPDEST PUSH1 0x0 DUP1 SLOAD PUSH1 0x40 MLOAD PUSH1 0x1 PUSH1 0x1 PUSH1 0xA0 SHL SUB DUP1 DUP6 AND SWAP4 SWAP3 AND SWAP2 PUSH32 0x8BE0079C531659141344CD1FD0A4F28419497F9722A3DAAFE3B4186F6B6457E0 SWAP2 LOG3 PUSH1 0x0 DUP1 SLOAD PUSH1 0x1 PUSH1 0x1 PUSH1 0xA0 SHL SUB NOT AND PUSH1 0x1 PUSH1 0x1 PUSH1 0xA0 SHL SUB SWAP3 SWAP1 SWAP3 AND SWAP2 SWAP1 SWAP2 OR SWAP1 SSTORE JUMP JUMPDEST PUSH1 0x1 PUSH1 0x1 PUSH1 0xA0 SHL SUB DUP4 AND PUSH2 0x123C JUMPI PUSH1 0x40 MLOAD PUSH3 0x461BCD PUSH1 0xE5 SHL DUP2 MSTORE PUSH1 0x20 PUSH1 0x4 DUP3 ADD MSTORE PUSH1 0x24 DUP1 DUP3 ADD MSTORE PUSH32 0x45524332303A20617070726F76652066726F6D20746865207A65726F20616464 PUSH1 0x44 DUP3 ADD MSTORE PUSH4 0x72657373 PUSH1 0xE0 SHL PUSH1 0x64 DUP3 ADD MSTORE PUSH1 0x84 ADD PUSH2 0x754 JUMP JUMPDEST PUSH1 0x1 PUSH1 0x1 PUSH1 0xA0 SHL SUB DUP3 AND PUSH2 0x129D JUMPI PUSH1 0x40 MLOAD PUSH3 0x461BCD PUSH1 0xE5 SHL DUP2 MSTORE PUSH1 0x20 PUSH1 0x4 DUP3 ADD MSTORE PUSH1 0x22 PUSH1 0x24 DUP3 ADD MSTORE PUSH32 0x45524332303A20617070726F766520746F20746865207A65726F206164647265 PUSH1 0x44 DUP3 ADD MSTORE PUSH2 0x7373 PUSH1 0xF0 SHL PUSH1 0x64 DUP3 ADD MSTORE PUSH1 0x84 ADD PUSH2 0x754 JUMP JUMPDEST PUSH1 0x1 PUSH1 0x1 PUSH1 0xA0 SHL SUB DUP4 DUP2 AND PUSH1 0x0 DUP2 DUP2 MSTORE PUSH1 0x3 PUSH1 0x20 SWAP1 DUP2 MSTORE PUSH1 0x40 DUP1 DUP4 KECCAK256 SWAP5 DUP8 AND DUP1 DUP5 MSTORE SWAP5 DUP3 MSTORE SWAP2 DUP3 SWAP1 KECCAK256 DUP6 SWAP1 SSTORE SWAP1 MLOAD DUP5 DUP2 MSTORE PUSH32 0x8C5BE1E5EBEC7D5BD14F71427D1E84F3DD0314C0F7B2291E5B200AC8C7C3B925 SWAP2 ADD PUSH1 0x40 MLOAD DUP1 SWAP2 SUB SWAP1 LOG3 POP POP POP JUMP JUMPDEST PUSH1 0x1 PUSH1 0x1 PUSH1 0xA0 SHL SUB DUP4 AND PUSH2 0x1362 JUMPI PUSH1 0x40 MLOAD PUSH3 0x461BCD PUSH1 0xE5 SHL DUP2 MSTORE PUSH1 0x20 PUSH1 0x4 DUP3 ADD MSTORE PUSH1 0x25 PUSH1 0x24 DUP3 ADD MSTORE PUSH32 0x45524332303A207472616E736665722066726F6D20746865207A65726F206164 PUSH1 0x44 DUP3 ADD MSTORE PUSH5 0x6472657373 PUSH1 0xD8 SHL PUSH1 0x64 DUP3 ADD MSTORE PUSH1 0x84 ADD PUSH2 0x754 JUMP JUMPDEST PUSH1 0x1 PUSH1 0x1 PUSH1 0xA0 SHL SUB DUP3 AND PUSH2 0x13C4 JUMPI PUSH1 0x40 MLOAD PUSH3 0x461BCD PUSH1 0xE5 SHL DUP2 MSTORE PUSH1 0x20 PUSH1 0x4 DUP3 ADD MSTORE PUSH1 0x23 PUSH1 0x24 DUP3 ADD MSTORE PUSH32 0x45524332303A207472616E7366657220746F20746865207A65726F2061646472 PUSH1 0x44 DUP3 ADD MSTORE PUSH3 0x657373 PUSH1 0xE8 SHL PUSH1 0x64 DUP3 ADD MSTORE PUSH1 0x84 ADD PUSH2 0x754 JUMP JUMPDEST PUSH1 0x0 DUP2 GT PUSH2 0x1426 JUMPI PUSH1 0x40 MLOAD PUSH3 0x461BCD PUSH1 0xE5 SHL DUP2 MSTORE PUSH1 0x20 PUSH1 0x4 DUP3 ADD MSTORE PUSH1 0x29 PUSH1 0x24 DUP3 ADD MSTORE PUSH32 0x5472616E7366657220616D6F756E74206D757374206265206772656174657220 PUSH1 0x44 DUP3 ADD MSTORE PUSH9 0x7468616E207A65726F PUSH1 0xB8 SHL PUSH1 0x64 DUP3 ADD MSTORE PUSH1 0x84 ADD PUSH2 0x754 JUMP JUMPDEST PUSH1 0x0 SLOAD PUSH1 0x1 PUSH1 0x1 PUSH1 0xA0 SHL SUB DUP5 DUP2 AND SWAP2 AND EQ DUP1 ISZERO SWAP1 PUSH2 0x1452 JUMPI POP PUSH1 0x0 SLOAD PUSH1 0x1 PUSH1 0x1 PUSH1 0xA0 SHL SUB DUP4 DUP2 AND SWAP2 AND EQ ISZERO JUMPDEST ISZERO PUSH2 0x14BA JUMPI PUSH1 0x14 SLOAD DUP2 GT ISZERO PUSH2 0x14BA JUMPI PUSH1 0x40 MLOAD PUSH3 0x461BCD PUSH1 0xE5 SHL DUP2 MSTORE PUSH1 0x20 PUSH1 0x4 DUP3 ADD MSTORE PUSH1 0x28 PUSH1 0x24 DUP3 ADD MSTORE PUSH32 0x5472616E7366657220616D6F756E74206578636565647320746865206D617854 PUSH1 0x44 DUP3 ADD MSTORE PUSH8 0x3C20B6B7BAB73A17 PUSH1 0xC1 SHL PUSH1 0x64 DUP3 ADD MSTORE PUSH1 0x84 ADD PUSH2 0x754 JUMP JUMPDEST PUSH1 0x0 PUSH2 0x14C5 ADDRESS PUSH2 0xE6A JUMP JUMPDEST SWAP1 POP PUSH1 0x14 SLOAD DUP2 LT PUSH2 0x14D5 JUMPI POP PUSH1 0x14 SLOAD JUMPDEST PUSH1 0x15 SLOAD DUP2 LT DUP1 ISZERO SWAP1 DUP2 SWAP1 PUSH2 0x14EC JUMPI POP PUSH1 0x13 SLOAD PUSH1 0xFF AND ISZERO JUMPDEST DUP1 ISZERO PUSH2 0x152A JUMPI POP PUSH32 0x0 PUSH1 0x1 PUSH1 0x1 PUSH1 0xA0 SHL SUB AND DUP6 PUSH1 0x1 PUSH1 0x1 PUSH1 0xA0 SHL SUB AND EQ ISZERO JUMPDEST DUP1 ISZERO PUSH2 0x153D JUMPI POP PUSH1 0x13 SLOAD PUSH2 0x100 SWAP1 DIV PUSH1 0xFF AND JUMPDEST ISZERO PUSH2 0x1550 JUMPI PUSH1 0x15 SLOAD SWAP2 POP PUSH2 0x1550 DUP3 PUSH2 0x16D8 JUMP JUMPDEST PUSH1 0x1 PUSH1 0x1 PUSH1 0xA0 SHL SUB DUP6 AND PUSH1 0x0 SWAP1 DUP2 MSTORE PUSH1 0x4 PUSH1 0x20 MSTORE PUSH1 0x40 SWAP1 KECCAK256 SLOAD PUSH1 0x1 SWAP1 PUSH1 0xFF AND DUP1 PUSH2 0x1592 JUMPI POP PUSH1 0x1 PUSH1 0x1 PUSH1 0xA0 SHL SUB DUP6 AND PUSH1 0x0 SWAP1 DUP2 MSTORE PUSH1 0x4 PUSH1 0x20 MSTORE PUSH1 0x40 SWAP1 KECCAK256 SLOAD PUSH1 0xFF AND JUMPDEST ISZERO PUSH2 0x159F JUMPI POP PUSH1 0x0 PUSH2 0x15F6 JUMP JUMPDEST PUSH32 0x0 PUSH1 0x1 PUSH1 0x1 PUSH1 0xA0 SHL SUB AND DUP6 PUSH1 0x1 PUSH1 0x1 PUSH1 0xA0 SHL SUB AND EQ ISZERO PUSH2 0x15F2 JUMPI PUSH2 0x15E1 PUSH2 0x1776 JUMP JUMPDEST PUSH1 0xD SLOAD PUSH1 0xF SSTORE PUSH1 0xE SLOAD PUSH1 0x11 SSTORE PUSH2 0x15F6 JUMP JUMPDEST POP PUSH1 0x0 JUMPDEST PUSH2 0x1602 DUP7 DUP7 DUP7 DUP5 PUSH2 0x17A4 JUMP JUMPDEST POP POP POP POP POP POP JUMP JUMPDEST PUSH1 0x0 DUP2 DUP5 DUP5 GT ISZERO PUSH2 0x162E JUMPI PUSH1 0x40 MLOAD PUSH3 0x461BCD PUSH1 0xE5 SHL DUP2 MSTORE PUSH1 0x4 ADD PUSH2 0x754 SWAP2 SWAP1 PUSH2 0x236B JUMP JUMPDEST POP POP POP SWAP1 SUB SWAP1 JUMP JUMPDEST PUSH1 0x0 DUP1 PUSH1 0x0 PUSH2 0x1643 PUSH2 0x1921 JUMP JUMPDEST SWAP1 SWAP3 POP SWAP1 POP PUSH2 0x1652 DUP3 DUP3 PUSH2 0x1659 JUMP JUMPDEST SWAP3 POP POP POP SWAP1 JUMP JUMPDEST PUSH1 0x0 PUSH2 0x8F1 DUP3 DUP5 PUSH2 0x247B JUMP JUMPDEST PUSH1 0x0 PUSH2 0x8F1 DUP3 DUP5 PUSH2 0x2463 JUMP JUMPDEST PUSH1 0x0 DUP1 PUSH1 0x0 DUP1 PUSH1 0x0 DUP1 PUSH1 0x0 DUP1 PUSH1 0x0 PUSH2 0x1688 DUP11 PUSH2 0x1ADB JUMP JUMPDEST SWAP3 POP SWAP3 POP SWAP3 POP PUSH1 0x0 DUP1 PUSH1 0x0 PUSH2 0x16A6 DUP14 DUP7 DUP7 PUSH2 0x16A1 PUSH2 0x1636 JUMP JUMPDEST PUSH2 0x1B1D JUMP JUMPDEST SWAP2 SWAP16 SWAP1 SWAP15 POP SWAP1 SWAP13 POP SWAP6 SWAP11 POP SWAP4 SWAP9 POP SWAP2 SWAP7 POP SWAP3 SWAP5 POP POP POP POP POP JUMP JUMPDEST PUSH1 0x0 PUSH2 0x8F1 DUP3 DUP5 PUSH2 0x24BA JUMP JUMPDEST PUSH1 0x0 PUSH2 0x8F1 DUP3 DUP5 PUSH2 0x249B JUMP JUMPDEST PUSH1 0x13 DUP1 SLOAD PUSH1 0xFF NOT AND PUSH1 0x1 OR SWAP1 SSTORE PUSH1 0x0 PUSH2 0x16F2 DUP3 PUSH1 0x2 PUSH2 0x1659 JUMP JUMPDEST SWAP1 POP PUSH1 0x0 PUSH2 0x1700 DUP4 DUP4 PUSH2 0x16C0 JUMP JUMPDEST SWAP1 POP SELFBALANCE PUSH2 0x170C DUP4 PUSH2 0x1B6D JUMP JUMPDEST PUSH1 0x0 PUSH2 0x1718 SELFBALANCE DUP4 PUSH2 0x16C0 JUMP JUMPDEST SWAP1 POP PUSH2 0x1724 DUP4 DUP3 PUSH2 0x1D50 JUMP JUMPDEST PUSH1 0x40 DUP1 MLOAD DUP6 DUP2 MSTORE PUSH1 0x20 DUP2 ADD DUP4 SWAP1 MSTORE SWAP1 DUP2 ADD DUP5 SWAP1 MSTORE PUSH32 0x17BBFB9A6069321B6DED73BD96327C9E6B7212A5CD51FF219CD61370ACAFB561 SWAP1 PUSH1 0x60 ADD PUSH1 0x40 MLOAD DUP1 SWAP2 SUB SWAP1 LOG1 POP POP PUSH1 0x13 DUP1 SLOAD PUSH1 0xFF NOT AND SWAP1 SSTORE POP POP POP JUMP JUMPDEST PUSH1 0xF SLOAD ISZERO DUP1 ISZERO PUSH2 0x1786 JUMPI POP PUSH1 0x11 SLOAD ISZERO JUMPDEST ISZERO PUSH2 0x178D JUMPI JUMP JUMPDEST PUSH1 0xF DUP1 SLOAD PUSH1 0x10 SSTORE PUSH1 0x11 DUP1 SLOAD PUSH1 0x12 SSTORE PUSH1 0x0 SWAP2 DUP3 SWAP1 SSTORE SSTORE JUMP JUMPDEST DUP1 PUSH2 0x17B1 JUMPI PUSH2 0x17B1 PUSH2 0x1776 JUMP JUMPDEST PUSH1 0x1 PUSH1 0x1 PUSH1 0xA0 SHL SUB DUP5 AND PUSH1 0x0 SWAP1 DUP2 MSTORE PUSH1 0x5 PUSH1 0x20 MSTORE PUSH1 0x40 SWAP1 KECCAK256 SLOAD PUSH1 0xFF AND DUP1 ISZERO PUSH2 0x17F2 JUMPI POP PUSH1 0x1 PUSH1 0x1 PUSH1 0xA0 SHL SUB DUP4 AND PUSH1 0x0 SWAP1 DUP2 MSTORE PUSH1 0x5 PUSH1 0x20 MSTORE PUSH1 0x40 SWAP1 KECCAK256 SLOAD PUSH1 0xFF AND ISZERO JUMPDEST ISZERO PUSH2 0x1807 JUMPI PUSH2 0x1802 DUP5 DUP5 DUP5 PUSH2 0x1E65 JUMP JUMPDEST PUSH2 0x1905 JUMP JUMPDEST PUSH1 0x1 PUSH1 0x1 PUSH1 0xA0 SHL SUB DUP5 AND PUSH1 0x0 SWAP1 DUP2 MSTORE PUSH1 0x5 PUSH1 0x20 MSTORE PUSH1 0x40 SWAP1 KECCAK256 SLOAD PUSH1 0xFF AND ISZERO DUP1 ISZERO PUSH2 0x1848 JUMPI POP PUSH1 0x1 PUSH1 0x1 PUSH1 0xA0 SHL SUB DUP4 AND PUSH1 0x0 SWAP1 DUP2 MSTORE PUSH1 0x5 PUSH1 0x20 MSTORE PUSH1 0x40 SWAP1 KECCAK256 SLOAD PUSH1 0xFF AND JUMPDEST ISZERO PUSH2 0x1858 JUMPI PUSH2 0x1802 DUP5 DUP5 DUP5 PUSH2 0x1F8B JUMP JUMPDEST PUSH1 0x1 PUSH1 0x1 PUSH1 0xA0 SHL SUB DUP5 AND PUSH1 0x0 SWAP1 DUP2 MSTORE PUSH1 0x5 PUSH1 0x20 MSTORE PUSH1 0x40 SWAP1 KECCAK256 SLOAD PUSH1 0xFF AND ISZERO DUP1 ISZERO PUSH2 0x189A JUMPI POP PUSH1 0x1 PUSH1 0x1 PUSH1 0xA0 SHL SUB DUP4 AND PUSH1 0x0 SWAP1 DUP2 MSTORE PUSH1 0x5 PUSH1 0x20 MSTORE PUSH1 0x40 SWAP1 KECCAK256 SLOAD PUSH1 0xFF AND ISZERO JUMPDEST ISZERO PUSH2 0x18AA JUMPI PUSH2 0x1802 DUP5 DUP5 DUP5 PUSH2 0x2034 JUMP JUMPDEST PUSH1 0x1 PUSH1 0x1 PUSH1 0xA0 SHL SUB DUP5 AND PUSH1 0x0 SWAP1 DUP2 MSTORE PUSH1 0x5 PUSH1 0x20 MSTORE PUSH1 0x40 SWAP1 KECCAK256 SLOAD PUSH1 0xFF AND DUP1 ISZERO PUSH2 0x18EA JUMPI POP PUSH1 0x1 PUSH1 0x1 PUSH1 0xA0 SHL SUB DUP4 AND PUSH1 0x0 SWAP1 DUP2 MSTORE PUSH1 0x5 PUSH1 0x20 MSTORE PUSH1 0x40 SWAP1 KECCAK256 SLOAD PUSH1 0xFF AND JUMPDEST ISZERO PUSH2 0x18FA JUMPI PUSH2 0x1802 DUP5 DUP5 DUP5 PUSH2 0x2078 JUMP JUMPDEST PUSH2 0x1905 DUP5 DUP5 DUP5 PUSH2 0x2034 JUMP JUMPDEST DUP1 PUSH2 0x191B JUMPI PUSH2 0x191B PUSH1 0x10 SLOAD PUSH1 0xF SSTORE PUSH1 0x12 SLOAD PUSH1 0x11 SSTORE JUMP JUMPDEST POP POP POP POP JUMP JUMPDEST PUSH1 0x8 SLOAD PUSH1 0x7 SLOAD PUSH1 0x0 SWAP2 DUP3 SWAP2 DUP3 JUMPDEST PUSH1 0x6 SLOAD DUP2 LT ISZERO PUSH2 0x1AAB JUMPI DUP3 PUSH1 0x1 PUSH1 0x0 PUSH1 0x6 DUP5 DUP2 SLOAD DUP2 LT PUSH2 0x195E JUMPI PUSH4 0x4E487B71 PUSH1 0xE0 SHL PUSH1 0x0 MSTORE PUSH1 0x32 PUSH1 0x4 MSTORE PUSH1 0x24 PUSH1 0x0 REVERT JUMPDEST PUSH1 0x0 SWAP2 DUP3 MSTORE PUSH1 0x20 DUP1 DUP4 KECCAK256 SWAP1 SWAP2 ADD SLOAD PUSH1 0x1 PUSH1 0x1 PUSH1 0xA0 SHL SUB AND DUP4 MSTORE DUP3 ADD SWAP3 SWAP1 SWAP3 MSTORE PUSH1 0x40 ADD SWAP1 KECCAK256 SLOAD GT DUP1 PUSH2 0x19D7 JUMPI POP DUP2 PUSH1 0x2 PUSH1 0x0 PUSH1 0x6 DUP5 DUP2 SLOAD DUP2 LT PUSH2 0x19B0 JUMPI PUSH4 0x4E487B71 PUSH1 0xE0 SHL PUSH1 0x0 MSTORE PUSH1 0x32 PUSH1 0x4 MSTORE PUSH1 0x24 PUSH1 0x0 REVERT JUMPDEST PUSH1 0x0 SWAP2 DUP3 MSTORE PUSH1 0x20 DUP1 DUP4 KECCAK256 SWAP1 SWAP2 ADD SLOAD PUSH1 0x1 PUSH1 0x1 PUSH1 0xA0 SHL SUB AND DUP4 MSTORE DUP3 ADD SWAP3 SWAP1 SWAP3 MSTORE PUSH1 0x40 ADD SWAP1 KECCAK256 SLOAD GT JUMPDEST ISZERO PUSH2 0x19ED JUMPI PUSH1 0x8 SLOAD PUSH1 0x7 SLOAD SWAP5 POP SWAP5 POP POP POP POP SWAP1 SWAP2 JUMP JUMPDEST PUSH2 0x1A41 PUSH1 0x1 PUSH1 0x0 PUSH1 0x6 DUP5 DUP2 SLOAD DUP2 LT PUSH2 0x1A15 JUMPI PUSH4 0x4E487B71 PUSH1 0xE0 SHL PUSH1 0x0 MSTORE PUSH1 0x32 PUSH1 0x4 MSTORE PUSH1 0x24 PUSH1 0x0 REVERT JUMPDEST PUSH1 0x0 SWAP2 DUP3 MSTORE PUSH1 0x20 DUP1 DUP4 KECCAK256 SWAP1 SWAP2 ADD SLOAD PUSH1 0x1 PUSH1 0x1 PUSH1 0xA0 SHL SUB AND DUP4 MSTORE DUP3 ADD SWAP3 SWAP1 SWAP3 MSTORE PUSH1 0x40 ADD SWAP1 KECCAK256 SLOAD DUP5 SWAP1 PUSH2 0x16C0 JUMP JUMPDEST SWAP3 POP PUSH2 0x1A97 PUSH1 0x2 PUSH1 0x0 PUSH1 0x6 DUP5 DUP2 SLOAD DUP2 LT PUSH2 0x1A6B JUMPI PUSH4 0x4E487B71 PUSH1 0xE0 SHL PUSH1 0x0 MSTORE PUSH1 0x32 PUSH1 0x4 MSTORE PUSH1 0x24 PUSH1 0x0 REVERT JUMPDEST PUSH1 0x0 SWAP2 DUP3 MSTORE PUSH1 0x20 DUP1 DUP4 KECCAK256 SWAP1 SWAP2 ADD SLOAD PUSH1 0x1 PUSH1 0x1 PUSH1 0xA0 SHL SUB AND DUP4 MSTORE DUP3 ADD SWAP3 SWAP1 SWAP3 MSTORE PUSH1 0x40 ADD SWAP1 KECCAK256 SLOAD DUP4 SWAP1 PUSH2 0x16C0 JUMP JUMPDEST SWAP2 POP DUP1 PUSH2 0x1AA3 DUP2 PUSH2 0x250C JUMP JUMPDEST SWAP2 POP POP PUSH2 0x192E JUMP JUMPDEST POP PUSH1 0x7 SLOAD PUSH1 0x8 SLOAD PUSH2 0x1ABB SWAP2 PUSH2 0x1659 JUMP JUMPDEST DUP3 LT ISZERO PUSH2 0x1AD2 JUMPI PUSH1 0x8 SLOAD PUSH1 0x7 SLOAD SWAP4 POP SWAP4 POP POP POP SWAP1 SWAP2 JUMP JUMPDEST SWAP1 SWAP4 SWAP1 SWAP3 POP SWAP1 POP JUMP JUMPDEST PUSH1 0x0 DUP1 PUSH1 0x0 DUP1 PUSH2 0x1AEA DUP6 PUSH2 0x20EB JUMP JUMPDEST SWAP1 POP PUSH1 0x0 PUSH2 0x1AF7 DUP7 PUSH2 0x2107 JUMP JUMPDEST SWAP1 POP PUSH1 0x0 PUSH2 0x1B0F DUP3 PUSH2 0x1B09 DUP10 DUP7 PUSH2 0x16C0 JUMP JUMPDEST SWAP1 PUSH2 0x16C0 JUMP JUMPDEST SWAP8 SWAP3 SWAP7 POP SWAP1 SWAP5 POP SWAP1 SWAP3 POP POP POP JUMP JUMPDEST PUSH1 0x0 DUP1 DUP1 DUP1 PUSH2 0x1B2C DUP9 DUP7 PUSH2 0x16CC JUMP JUMPDEST SWAP1 POP PUSH1 0x0 PUSH2 0x1B3A DUP9 DUP8 PUSH2 0x16CC JUMP JUMPDEST SWAP1 POP PUSH1 0x0 PUSH2 0x1B48 DUP9 DUP9 PUSH2 0x16CC JUMP JUMPDEST SWAP1 POP PUSH1 0x0 PUSH2 0x1B5A DUP3 PUSH2 0x1B09 DUP7 DUP7 PUSH2 0x16C0 JUMP JUMPDEST SWAP4 SWAP12 SWAP4 SWAP11 POP SWAP2 SWAP9 POP SWAP2 SWAP7 POP POP POP POP POP POP POP JUMP JUMPDEST PUSH1 0x40 DUP1 MLOAD PUSH1 0x2 DUP1 DUP3 MSTORE PUSH1 0x60 DUP3 ADD DUP4 MSTORE PUSH1 0x0 SWAP3 PUSH1 0x20 DUP4 ADD SWAP1 DUP1 CALLDATASIZE DUP4 CALLDATACOPY ADD SWAP1 POP POP SWAP1 POP ADDRESS DUP2 PUSH1 0x0 DUP2 MLOAD DUP2 LT PUSH2 0x1BB0 JUMPI PUSH4 0x4E487B71 PUSH1 0xE0 SHL PUSH1 0x0 MSTORE PUSH1 0x32 PUSH1 0x4 MSTORE PUSH1 0x24 PUSH1 0x0 REVERT JUMPDEST PUSH1 0x20 MUL PUSH1 0x20 ADD ADD SWAP1 PUSH1 0x1 PUSH1 0x1 PUSH1 0xA0 SHL SUB AND SWAP1 DUP2 PUSH1 0x1 PUSH1 0x1 PUSH1 0xA0 SHL SUB AND DUP2 MSTORE POP POP PUSH32 0x0 PUSH1 0x1 PUSH1 0x1 PUSH1 0xA0 SHL SUB AND PUSH4 0xAD5C4648 PUSH1 0x40 MLOAD DUP2 PUSH4 0xFFFFFFFF AND PUSH1 0xE0 SHL DUP2 MSTORE PUSH1 0x4 ADD PUSH1 0x20 PUSH1 0x40 MLOAD DUP1 DUP4 SUB DUP2 DUP7 DUP1 EXTCODESIZE ISZERO DUP1 ISZERO PUSH2 0x1C29 JUMPI PUSH1 0x0 DUP1 REVERT JUMPDEST POP GAS STATICCALL ISZERO DUP1 ISZERO PUSH2 0x1C3D JUMPI RETURNDATASIZE PUSH1 0x0 DUP1 RETURNDATACOPY RETURNDATASIZE PUSH1 0x0 REVERT JUMPDEST POP POP POP POP PUSH1 0x40 MLOAD RETURNDATASIZE PUSH1 0x1F NOT PUSH1 0x1F DUP3 ADD AND DUP3 ADD DUP1 PUSH1 0x40 MSTORE POP DUP2 ADD SWAP1 PUSH2 0x1C61 SWAP2 SWAP1 PUSH2 0x2201 JUMP JUMPDEST DUP2 PUSH1 0x1 DUP2 MLOAD DUP2 LT PUSH2 0x1C82 JUMPI PUSH4 0x4E487B71 PUSH1 0xE0 SHL PUSH1 0x0 MSTORE PUSH1 0x32 PUSH1 0x4 MSTORE PUSH1 0x24 PUSH1 0x0 REVERT JUMPDEST PUSH1 0x20 MUL PUSH1 0x20 ADD ADD SWAP1 PUSH1 0x1 PUSH1 0x1 PUSH1 0xA0 SHL SUB AND SWAP1 DUP2 PUSH1 0x1 PUSH1 0x1 PUSH1 0xA0 SHL SUB AND DUP2 MSTORE POP POP PUSH2 0x1CCD ADDRESS PUSH32 0x0 DUP5 PUSH2 0x11DA JUMP JUMPDEST PUSH1 0x40 MLOAD PUSH4 0x791AC947 PUSH1 0xE0 SHL DUP2 MSTORE PUSH1 0x1 PUSH1 0x1 PUSH1 0xA0 SHL SUB PUSH32 0x0 AND SWAP1 PUSH4 0x791AC947 SWAP1 PUSH2 0x1D22 SWAP1 DUP6 SWAP1 PUSH1 0x0 SWAP1 DUP7 SWAP1 ADDRESS SWAP1 TIMESTAMP SWAP1 PUSH1 0x4 ADD PUSH2 0x23F3 JUMP JUMPDEST PUSH1 0x0 PUSH1 0x40 MLOAD DUP1 DUP4 SUB DUP2 PUSH1 0x0 DUP8 DUP1 EXTCODESIZE ISZERO DUP1 ISZERO PUSH2 0x1D3C JUMPI PUSH1 0x0 DUP1 REVERT JUMPDEST POP GAS CALL ISZERO DUP1 ISZERO PUSH2 0x1602 JUMPI RETURNDATASIZE PUSH1 0x0 DUP1 RETURNDATACOPY RETURNDATASIZE PUSH1 0x0 REVERT JUMPDEST PUSH2 0x1D7B ADDRESS PUSH32 0x0 DUP5 PUSH2 0x11DA JUMP JUMPDEST PUSH32 0x0 PUSH1 0x1 PUSH1 0x1 PUSH1 0xA0 SHL SUB AND PUSH4 0xF305D719 DUP3 ADDRESS DUP6 PUSH1 0x0 DUP1 PUSH2 0x1DC2 PUSH1 0x0 SLOAD PUSH1 0x1 PUSH1 0x1 PUSH1 0xA0 SHL SUB AND SWAP1 JUMP JUMPDEST PUSH1 0x40 MLOAD PUSH1 0xE0 DUP9 SWAP1 SHL PUSH1 0x1 PUSH1 0x1 PUSH1 0xE0 SHL SUB NOT AND DUP2 MSTORE PUSH1 0x1 PUSH1 0x1 PUSH1 0xA0 SHL SUB SWAP6 DUP7 AND PUSH1 0x4 DUP3 ADD MSTORE PUSH1 0x24 DUP2 ADD SWAP5 SWAP1 SWAP5 MSTORE PUSH1 0x44 DUP5 ADD SWAP3 SWAP1 SWAP3 MSTORE PUSH1 0x64 DUP4 ADD MSTORE SWAP1 SWAP2 AND PUSH1 0x84 DUP3 ADD MSTORE TIMESTAMP PUSH1 0xA4 DUP3 ADD MSTORE PUSH1 0xC4 ADD PUSH1 0x60 PUSH1 0x40 MLOAD DUP1 DUP4 SUB DUP2 DUP6 DUP9 DUP1 EXTCODESIZE ISZERO DUP1 ISZERO PUSH2 0x1E25 JUMPI PUSH1 0x0 DUP1 REVERT JUMPDEST POP GAS CALL ISZERO DUP1 ISZERO PUSH2 0x1E39 JUMPI RETURNDATASIZE PUSH1 0x0 DUP1 RETURNDATACOPY RETURNDATASIZE PUSH1 0x0 REVERT JUMPDEST POP POP POP POP POP PUSH1 0x40 MLOAD RETURNDATASIZE PUSH1 0x1F NOT PUSH1 0x1F DUP3 ADD AND DUP3 ADD DUP1 PUSH1 0x40 MSTORE POP DUP2 ADD SWAP1 PUSH2 0x1E5E SWAP2 SWAP1 PUSH2 0x233E JUMP JUMPDEST POP POP POP POP POP JUMP JUMPDEST PUSH1 0x0 DUP1 PUSH1 0x0 DUP1 PUSH1 0x0 DUP1 PUSH2 0x1E77 DUP8 PUSH2 0x1671 JUMP JUMPDEST PUSH1 0x1 PUSH1 0x1 PUSH1 0xA0 SHL SUB DUP16 AND PUSH1 0x0 SWAP1 DUP2 MSTORE PUSH1 0x2 PUSH1 0x20 MSTORE PUSH1 0x40 SWAP1 KECCAK256 SLOAD SWAP6 SWAP12 POP SWAP4 SWAP10 POP SWAP2 SWAP8 POP SWAP6 POP SWAP4 POP SWAP2 POP PUSH2 0x1EA9 SWAP1 DUP9 PUSH2 0x16C0 JUMP JUMPDEST PUSH1 0x1 PUSH1 0x1 PUSH1 0xA0 SHL SUB DUP11 AND PUSH1 0x0 SWAP1 DUP2 MSTORE PUSH1 0x2 PUSH1 0x20 SWAP1 DUP2 MSTORE PUSH1 0x40 DUP1 DUP4 KECCAK256 SWAP4 SWAP1 SWAP4 SSTORE PUSH1 0x1 SWAP1 MSTORE KECCAK256 SLOAD PUSH2 0x1ED8 SWAP1 DUP8 PUSH2 0x16C0 JUMP JUMPDEST PUSH1 0x1 PUSH1 0x1 PUSH1 0xA0 SHL SUB DUP1 DUP12 AND PUSH1 0x0 SWAP1 DUP2 MSTORE PUSH1 0x1 PUSH1 0x20 MSTORE PUSH1 0x40 DUP1 DUP3 KECCAK256 SWAP4 SWAP1 SWAP4 SSTORE SWAP1 DUP11 AND DUP2 MSTORE KECCAK256 SLOAD PUSH2 0x1F07 SWAP1 DUP7 PUSH2 0x1665 JUMP JUMPDEST PUSH1 0x1 PUSH1 0x1 PUSH1 0xA0 SHL SUB DUP10 AND PUSH1 0x0 SWAP1 DUP2 MSTORE PUSH1 0x1 PUSH1 0x20 MSTORE PUSH1 0x40 SWAP1 KECCAK256 SSTORE PUSH2 0x1F29 DUP2 PUSH2 0x2123 JUMP JUMPDEST PUSH2 0x1F33 DUP5 DUP4 PUSH2 0x21AC JUMP JUMPDEST DUP8 PUSH1 0x1 PUSH1 0x1 PUSH1 0xA0 SHL SUB AND DUP10 PUSH1 0x1 PUSH1 0x1 PUSH1 0xA0 SHL SUB AND PUSH32 0xDDF252AD1BE2C89B69C2B068FC378DAA952BA7F163C4A11628F55A4DF523B3EF DUP6 PUSH1 0x40 MLOAD PUSH2 0x1F78 SWAP2 DUP2 MSTORE PUSH1 0x20 ADD SWAP1 JUMP JUMPDEST PUSH1 0x40 MLOAD DUP1 SWAP2 SUB SWAP1 LOG3 POP POP POP POP POP POP POP POP POP JUMP JUMPDEST PUSH1 0x0 DUP1 PUSH1 0x0 DUP1 PUSH1 0x0 DUP1 PUSH2 0x1F9D DUP8 PUSH2 0x1671 JUMP JUMPDEST PUSH1 0x1 PUSH1 0x1 PUSH1 0xA0 SHL SUB DUP16 AND PUSH1 0x0 SWAP1 DUP2 MSTORE PUSH1 0x1 PUSH1 0x20 MSTORE PUSH1 0x40 SWAP1 KECCAK256 SLOAD SWAP6 SWAP12 POP SWAP4 SWAP10 POP SWAP2 SWAP8 POP SWAP6 POP SWAP4 POP SWAP2 POP PUSH2 0x1FCF SWAP1 DUP8 PUSH2 0x16C0 JUMP JUMPDEST PUSH1 0x1 PUSH1 0x1 PUSH1 0xA0 SHL SUB DUP1 DUP12 AND PUSH1 0x0 SWAP1 DUP2 MSTORE PUSH1 0x1 PUSH1 0x20 SWAP1 DUP2 MSTORE PUSH1 0x40 DUP1 DUP4 KECCAK256 SWAP5 SWAP1 SWAP5 SSTORE SWAP2 DUP12 AND DUP2 MSTORE PUSH1 0x2 SWAP1 SWAP2 MSTORE KECCAK256 SLOAD PUSH2 0x2005 SWAP1 DUP5 PUSH2 0x1665 JUMP JUMPDEST PUSH1 0x1 PUSH1 0x1 PUSH1 0xA0 SHL SUB DUP10 AND PUSH1 0x0 SWAP1 DUP2 MSTORE PUSH1 0x2 PUSH1 0x20 SWAP1 DUP2 MSTORE PUSH1 0x40 DUP1 DUP4 KECCAK256 SWAP4 SWAP1 SWAP4 SSTORE PUSH1 0x1 SWAP1 MSTORE KECCAK256 SLOAD PUSH2 0x1F07 SWAP1 DUP7 PUSH2 0x1665 JUMP JUMPDEST PUSH1 0x0 DUP1 PUSH1 0x0 DUP1 PUSH1 0x0 DUP1 PUSH2 0x2046 DUP8 PUSH2 0x1671 JUMP JUMPDEST PUSH1 0x1 PUSH1 0x1 PUSH1 0xA0 SHL SUB DUP16 AND PUSH1 0x0 SWAP1 DUP2 MSTORE PUSH1 0x1 PUSH1 0x20 MSTORE PUSH1 0x40 SWAP1 KECCAK256 SLOAD SWAP6 SWAP12 POP SWAP4 SWAP10 POP SWAP2 SWAP8 POP SWAP6 POP SWAP4 POP SWAP2 POP PUSH2 0x1ED8 SWAP1 DUP8 PUSH2 0x16C0 JUMP JUMPDEST PUSH1 0x0 DUP1 PUSH1 0x0 DUP1 PUSH1 0x0 DUP1 PUSH2 0x208A DUP8 PUSH2 0x1671 JUMP JUMPDEST PUSH1 0x1 PUSH1 0x1 PUSH1 0xA0 SHL SUB DUP16 AND PUSH1 0x0 SWAP1 DUP2 MSTORE PUSH1 0x2 PUSH1 0x20 MSTORE PUSH1 0x40 SWAP1 KECCAK256 SLOAD SWAP6 SWAP12 POP SWAP4 SWAP10 POP SWAP2 SWAP8 POP SWAP6 POP SWAP4 POP SWAP2 POP PUSH2 0x20BC SWAP1 DUP9 PUSH2 0x16C0 JUMP JUMPDEST PUSH1 0x1 PUSH1 0x1 PUSH1 0xA0 SHL SUB DUP11 AND PUSH1 0x0 SWAP1 DUP2 MSTORE PUSH1 0x2 PUSH1 0x20 SWAP1 DUP2 MSTORE PUSH1 0x40 DUP1 DUP4 KECCAK256 SWAP4 SWAP1 SWAP4 SSTORE PUSH1 0x1 SWAP1 MSTORE KECCAK256 SLOAD PUSH2 0x1FCF SWAP1 DUP8 PUSH2 0x16C0 JUMP JUMPDEST PUSH1 0x0 PUSH2 0x805 PUSH1 0x64 PUSH2 0x1099 PUSH1 0xF SLOAD DUP6 PUSH2 0x16CC SWAP1 SWAP2 SWAP1 PUSH4 0xFFFFFFFF AND JUMP JUMPDEST PUSH1 0x0 PUSH2 0x805 PUSH1 0x64 PUSH2 0x1099 PUSH1 0x11 SLOAD DUP6 PUSH2 0x16CC SWAP1 SWAP2 SWAP1 PUSH4 0xFFFFFFFF AND JUMP JUMPDEST PUSH1 0x0 PUSH2 0x212D PUSH2 0x1636 JUMP JUMPDEST SWAP1 POP PUSH1 0x0 PUSH2 0x213B DUP4 DUP4 PUSH2 0x16CC JUMP JUMPDEST ADDRESS PUSH1 0x0 SWAP1 DUP2 MSTORE PUSH1 0x1 PUSH1 0x20 MSTORE PUSH1 0x40 SWAP1 KECCAK256 SLOAD SWAP1 SWAP2 POP PUSH2 0x2158 SWAP1 DUP3 PUSH2 0x1665 JUMP JUMPDEST ADDRESS PUSH1 0x0 SWAP1 DUP2 MSTORE PUSH1 0x1 PUSH1 0x20 SWAP1 DUP2 MSTORE PUSH1 0x40 DUP1 DUP4 KECCAK256 SWAP4 SWAP1 SWAP4 SSTORE PUSH1 0x5 SWAP1 MSTORE KECCAK256 SLOAD PUSH1 0xFF AND ISZERO PUSH2 0x21A7 JUMPI ADDRESS PUSH1 0x0 SWAP1 DUP2 MSTORE PUSH1 0x2 PUSH1 0x20 MSTORE PUSH1 0x40 SWAP1 KECCAK256 SLOAD PUSH2 0x2196 SWAP1 DUP5 PUSH2 0x1665 JUMP JUMPDEST ADDRESS PUSH1 0x0 SWAP1 DUP2 MSTORE PUSH1 0x2 PUSH1 0x20 MSTORE PUSH1 0x40 SWAP1 KECCAK256 SSTORE JUMPDEST POP POP POP JUMP JUMPDEST PUSH1 0x8 SLOAD PUSH2 0x21B9 SWAP1 DUP4 PUSH2 0x16C0 JUMP JUMPDEST PUSH1 0x8 SSTORE PUSH1 0x9 SLOAD PUSH2 0x21C9 SWAP1 DUP3 PUSH2 0x1665 JUMP JUMPDEST PUSH1 0x9 SSTORE POP POP JUMP JUMPDEST DUP1 CALLDATALOAD DUP1 ISZERO ISZERO DUP2 EQ PUSH2 0x21E0 JUMPI PUSH1 0x0 DUP1 REVERT JUMPDEST SWAP2 SWAP1 POP JUMP JUMPDEST PUSH1 0x0 PUSH1 0x20 DUP3 DUP5 SUB SLT ISZERO PUSH2 0x21F6 JUMPI DUP1 DUP2 REVERT JUMPDEST DUP2 CALLDATALOAD PUSH2 0x8F1 DUP2 PUSH2 0x253D JUMP JUMPDEST PUSH1 0x0 PUSH1 0x20 DUP3 DUP5 SUB SLT ISZERO PUSH2 0x2212 JUMPI DUP1 DUP2 REVERT JUMPDEST DUP2 MLOAD PUSH2 0x8F1 DUP2 PUSH2 0x253D JUMP JUMPDEST PUSH1 0x0 DUP1 PUSH1 0x40 DUP4 DUP6 SUB SLT ISZERO PUSH2 0x222F JUMPI DUP1 DUP2 REVERT JUMPDEST DUP3 CALLDATALOAD PUSH2 0x223A DUP2 PUSH2 0x253D JUMP JUMPDEST SWAP2 POP PUSH1 0x20 DUP4 ADD CALLDATALOAD PUSH2 0x224A DUP2 PUSH2 0x253D JUMP JUMPDEST DUP1 SWAP2 POP POP SWAP3 POP SWAP3 SWAP1 POP JUMP JUMPDEST PUSH1 0x0 DUP1 PUSH1 0x0 PUSH1 0x60 DUP5 DUP7 SUB SLT ISZERO PUSH2 0x2269 JUMPI DUP1 DUP2 REVERT JUMPDEST DUP4 CALLDATALOAD PUSH2 0x2274 DUP2 PUSH2 0x253D JUMP JUMPDEST SWAP3 POP PUSH1 0x20 DUP5 ADD CALLDATALOAD PUSH2 0x2284 DUP2 PUSH2 0x253D JUMP JUMPDEST SWAP3 SWAP6 SWAP3 SWAP5 POP POP POP PUSH1 0x40 SWAP2 SWAP1 SWAP2 ADD CALLDATALOAD SWAP1 JUMP JUMPDEST PUSH1 0x0 DUP1 PUSH1 0x40 DUP4 DUP6 SUB SLT ISZERO PUSH2 0x22A7 JUMPI DUP2 DUP3 REVERT JUMPDEST DUP3 CALLDATALOAD PUSH2 0x22B2 DUP2 PUSH2 0x253D JUMP JUMPDEST SWAP5 PUSH1 0x20 SWAP4 SWAP1 SWAP4 ADD CALLDATALOAD SWAP4 POP POP POP JUMP JUMPDEST PUSH1 0x0 PUSH1 0x20 DUP3 DUP5 SUB SLT ISZERO PUSH2 0x22D1 JUMPI DUP1 DUP2 REVERT JUMPDEST PUSH2 0x8F1 DUP3 PUSH2 0x21D0 JUMP JUMPDEST PUSH1 0x0 PUSH1 0x20 DUP3 DUP5 SUB SLT ISZERO PUSH2 0x22EB JUMPI DUP1 DUP2 REVERT JUMPDEST POP CALLDATALOAD SWAP2 SWAP1 POP JUMP JUMPDEST PUSH1 0x0 DUP1 PUSH1 0x40 DUP4 DUP6 SUB SLT ISZERO PUSH2 0x2304 JUMPI DUP2 DUP3 REVERT JUMPDEST DUP3 CALLDATALOAD SWAP2 POP PUSH2 0x2314 PUSH1 0x20 DUP5 ADD PUSH2 0x21D0 JUMP JUMPDEST SWAP1 POP SWAP3 POP SWAP3 SWAP1 POP JUMP JUMPDEST PUSH1 0x0 DUP1 PUSH1 0x40 DUP4 DUP6 SUB SLT ISZERO PUSH2 0x232F JUMPI DUP2 DUP3 REVERT JUMPDEST POP POP DUP1 CALLDATALOAD SWAP3 PUSH1 0x20 SWAP1 SWAP2 ADD CALLDATALOAD SWAP2 POP JUMP JUMPDEST PUSH1 0x0 DUP1 PUSH1 0x0 PUSH1 0x60 DUP5 DUP7 SUB SLT ISZERO PUSH2 0x2352 JUMPI DUP3 DUP4 REVERT JUMPDEST DUP4 MLOAD SWAP3 POP PUSH1 0x20 DUP5 ADD MLOAD SWAP2 POP PUSH1 0x40 DUP5 ADD MLOAD SWAP1 POP SWAP3 POP SWAP3 POP SWAP3 JUMP JUMPDEST PUSH1 0x0 PUSH1 0x20 DUP1 DUP4 MSTORE DUP4 MLOAD DUP1 DUP3 DUP6 ADD MSTORE DUP3 JUMPDEST DUP2 DUP2 LT ISZERO PUSH2 0x2397 JUMPI DUP6 DUP2 ADD DUP4 ADD MLOAD DUP6 DUP3 ADD PUSH1 0x40 ADD MSTORE DUP3 ADD PUSH2 0x237B JUMP JUMPDEST DUP2 DUP2 GT ISZERO PUSH2 0x23A8 JUMPI DUP4 PUSH1 0x40 DUP4 DUP8 ADD ADD MSTORE JUMPDEST POP PUSH1 0x1F ADD PUSH1 0x1F NOT AND SWAP3 SWAP1 SWAP3 ADD PUSH1 0x40 ADD SWAP4 SWAP3 POP POP POP JUMP JUMPDEST PUSH1 0x20 DUP1 DUP3 MSTORE DUP2 DUP2 ADD MSTORE PUSH32 0x4F776E61626C653A2063616C6C6572206973206E6F7420746865206F776E6572 PUSH1 0x40 DUP3 ADD MSTORE PUSH1 0x60 ADD SWAP1 JUMP JUMPDEST PUSH1 0x0 PUSH1 0xA0 DUP3 ADD DUP8 DUP4 MSTORE PUSH1 0x20 DUP8 DUP2 DUP6 ADD MSTORE PUSH1 0xA0 PUSH1 0x40 DUP6 ADD MSTORE DUP2 DUP8 MLOAD DUP1 DUP5 MSTORE PUSH1 0xC0 DUP7 ADD SWAP2 POP DUP3 DUP10 ADD SWAP4 POP DUP5 JUMPDEST DUP2 DUP2 LT ISZERO PUSH2 0x2442 JUMPI DUP5 MLOAD PUSH1 0x1 PUSH1 0x1 PUSH1 0xA0 SHL SUB AND DUP4 MSTORE SWAP4 DUP4 ADD SWAP4 SWAP2 DUP4 ADD SWAP2 PUSH1 0x1 ADD PUSH2 0x241D JUMP JUMPDEST POP POP PUSH1 0x1 PUSH1 0x1 PUSH1 0xA0 SHL SUB SWAP7 SWAP1 SWAP7 AND PUSH1 0x60 DUP6 ADD MSTORE POP POP POP PUSH1 0x80 ADD MSTORE SWAP4 SWAP3 POP POP POP JUMP JUMPDEST PUSH1 0x0 DUP3 NOT DUP3 GT ISZERO PUSH2 0x2476 JUMPI PUSH2 0x2476 PUSH2 0x2527 JUMP JUMPDEST POP ADD SWAP1 JUMP JUMPDEST PUSH1 0x0 DUP3 PUSH2 0x2496 JUMPI PUSH4 0x4E487B71 PUSH1 0xE0 SHL DUP2 MSTORE PUSH1 0x12 PUSH1 0x4 MSTORE PUSH1 0x24 DUP2 REVERT JUMPDEST POP DIV SWAP1 JUMP JUMPDEST PUSH1 0x0 DUP2 PUSH1 0x0 NOT DIV DUP4 GT DUP3 ISZERO ISZERO AND ISZERO PUSH2 0x24B5 JUMPI PUSH2 0x24B5 PUSH2 0x2527 JUMP JUMPDEST POP MUL SWAP1 JUMP JUMPDEST PUSH1 0x0 DUP3 DUP3 LT ISZERO PUSH2 0x24CC JUMPI PUSH2 0x24CC PUSH2 0x2527 JUMP JUMPDEST POP SUB SWAP1 JUMP JUMPDEST PUSH1 0x1 DUP2 DUP2 SHR SWAP1 DUP3 AND DUP1 PUSH2 0x24E5 JUMPI PUSH1 0x7F DUP3 AND SWAP2 POP JUMPDEST PUSH1 0x20 DUP3 LT DUP2 EQ ISZERO PUSH2 0x2506 JUMPI PUSH4 0x4E487B71 PUSH1 0xE0 SHL PUSH1 0x0 MSTORE PUSH1 0x22 PUSH1 0x4 MSTORE PUSH1 0x24 PUSH1 0x0 REVERT JUMPDEST POP SWAP2 SWAP1 POP JUMP JUMPDEST PUSH1 0x0 PUSH1 0x0 NOT DUP3 EQ ISZERO PUSH2 0x2520 JUMPI PUSH2 0x2520 PUSH2 0x2527 JUMP JUMPDEST POP PUSH1 0x1 ADD SWAP1 JUMP JUMPDEST PUSH4 0x4E487B71 PUSH1 0xE0 SHL PUSH1 0x0 MSTORE PUSH1 0x11 PUSH1 0x4 MSTORE PUSH1 0x24 PUSH1 0x0 REVERT JUMPDEST PUSH1 0x1 PUSH1 0x1 PUSH1 0xA0 SHL SUB DUP2 AND DUP2 EQ PUSH2 0x2552 JUMPI PUSH1 0x0 DUP1 REVERT JUMPDEST POP JUMP INVALID GASLIMIT MSTORE NUMBER ORIGIN ADDRESS GASPRICE KECCAK256 PUSH21 0x72616E7366657220616D6F756E7420657863656564 PUSH20 0x20616C6C6F77616E636545524332303A20646563 PUSH19 0x656173656420616C6C6F77616E63652062656C PUSH16 0x77207A65726FA2646970667358221220 CREATE2 EXP 0xE1 PUSH8 0x2725F90E8CAA00C9 SWAP9 SELFDESTRUCT PUSH7 0xC1A06DD802667D 0x4A 0xD9 0xBA SHL SLT PUSH31 0x93C8726D64736F6C6343000804003300000000000000000000000000000000 "
        },
        "methodIdentifiers": {
          "_liquidityFee()": "6bc87c3a",
          "_maxTxAmount()": "7d1db4a5",
          "_sellLiquidityFee()": "88790a68",
          "_sellTaxFee()": "200a692d",
          "_taxFee()": "3b124fe7",
          "allowance(address,address)": "dd62ed3e",
          "approve(address,uint256)": "095ea7b3",
          "balanceOf(address)": "70a08231",
          "decimals()": "313ce567",
          "decreaseAllowance(address,uint256)": "a457c2d7",
          "deliver(uint256)": "3bd5d173",
          "excludeFromFee(address)": "437823ec",
          "excludeFromReward(address)": "52390c02",
          "includeInFee(address)": "ea2f0b37",
          "includeInReward(address)": "3685d419",
          "increaseAllowance(address,uint256)": "39509351",
          "isExcludedFromFee(address)": "5342acb4",
          "isExcludedFromReward(address)": "88f82020",
          "name()": "06fdde03",
          "owner()": "8da5cb5b",
          "reflectionFromToken(uint256,bool)": "4549b039",
          "renounceOwnership()": "715018a6",
          "setLiquidityFeePercent(uint256)": "8ee88c53",
          "setMaxTxPercent(uint256)": "d543dbeb",
          "setSellFee(uint256,uint256)": "6ac9a870",
          "setSwapAndLiquifyEnabled(bool)": "c49b9a80",
          "setTaxFeePercent(uint256)": "061c82d0",
          "swapAndLiquifyEnabled()": "4a74bb02",
          "symbol()": "95d89b41",
          "tokenFromReflection(uint256)": "2d838119",
          "totalFees()": "13114a9d",
          "totalSupply()": "18160ddd",
          "transfer(address,uint256)": "a9059cbb",
          "transferFrom(address,address,uint256)": "23b872dd",
          "transferOwnership(address)": "f2fde38b",
          "uniswapV2Pair()": "49bd5a5e",
          "uniswapV2Router()": "1694505e"
        }
      }
    }
  }
}