{
  "_format": "hh-sol-artifact-1",
  "contractName": "KIRU",
  "sourceName": "contracts/KIRU.sol",
  "abi": [
    {
      "inputs": [],
      "stateMutability": "nonpayable",
      "type": "constructor"
    },
    {
      "anonymous": false,
      "inputs": [
        {
          "indexed": true,
          "internalType": "address",
          "name": "owner",
          "type": "address"
        },
        {
          "indexed": true,
          "internalType": "address",
          "name": "spender",
          "type": "address"
        },
        {
          "indexed": false,
          "internalType": "uint256",
          "name": "value",
          "type": "uint256"
        }
      ],
      "name": "Approval",
      "type": "event"
    },
    {
      "anonymous": false,
      "inputs": [
        {
          "indexed": false,
          "internalType": "uint256",
          "name": "minTokensBeforeSwap",
          "type": "uint256"
        }
      ],
      "name": "MinTokensBeforeSwapUpdated",
      "type": "event"
    },
    {
      "anonymous": false,
      "inputs": [
        {
          "indexed": true,
          "internalType": "address",
          "name": "previousOwner",
          "type": "address"
        },
        {
          "indexed": true,
          "internalType": "address",
          "name": "newOwner",
          "type": "address"
        }
      ],
      "name": "OwnershipTransferred",
      "type": "event"
    },
    {
      "anonymous": false,
      "inputs": [
        {
          "indexed": false,
          "internalType": "uint256",
          "name": "tokensSwapped",
          "type": "uint256"
        },
        {
          "indexed": false,
          "internalType": "uint256",
          "name": "ethReceived",
          "type": "uint256"
        },
        {
          "indexed": false,
          "internalType": "uint256",
          "name": "tokensIntoLiqudity",
          "type": "uint256"
        }
      ],
      "name": "SwapAndLiquify",
      "type": "event"
    },
    {
      "anonymous": false,
      "inputs": [
        {
          "indexed": false,
          "internalType": "bool",
          "name": "enabled",
          "type": "bool"
        }
      ],
      "name": "SwapAndLiquifyEnabledUpdated",
      "type": "event"
    },
    {
      "anonymous": false,
      "inputs": [
        {
          "indexed": true,
          "internalType": "address",
          "name": "from",
          "type": "address"
        },
        {
          "indexed": true,
          "internalType": "address",
          "name": "to",
          "type": "address"
        },
        {
          "indexed": false,
          "internalType": "uint256",
          "name": "value",
          "type": "uint256"
        }
      ],
      "name": "Transfer",
      "type": "event"
    },
    {
      "inputs": [],
      "name": "_liquidityFee",
      "outputs": [
        {
          "internalType": "uint256",
          "name": "",
          "type": "uint256"
        }
      ],
      "stateMutability": "view",
      "type": "function"
    },
    {
      "inputs": [],
      "name": "_maxTxAmount",
      "outputs": [
        {
          "internalType": "uint256",
          "name": "",
          "type": "uint256"
        }
      ],
      "stateMutability": "view",
      "type": "function"
    },
    {
      "inputs": [],
      "name": "_sellLiquidityFee",
      "outputs": [
        {
          "internalType": "uint256",
          "name": "",
          "type": "uint256"
        }
      ],
      "stateMutability": "view",
      "type": "function"
    },
    {
      "inputs": [],
      "name": "_sellTaxFee",
      "outputs": [
        {
          "internalType": "uint256",
          "name": "",
          "type": "uint256"
        }
      ],
      "stateMutability": "view",
      "type": "function"
    },
    {
      "inputs": [],
      "name": "_taxFee",
      "outputs": [
        {
          "internalType": "uint256",
          "name": "",
          "type": "uint256"
        }
      ],
      "stateMutability": "view",
      "type": "function"
    },
    {
      "inputs": [
        {
          "internalType": "address",
          "name": "owner",
          "type": "address"
        },
        {
          "internalType": "address",
          "name": "spender",
          "type": "address"
        }
      ],
      "name": "allowance",
      "outputs": [
        {
          "internalType": "uint256",
          "name": "",
          "type": "uint256"
        }
      ],
      "stateMutability": "view",
      "type": "function"
    },
    {
      "inputs": [
        {
          "internalType": "address",
          "name": "spender",
          "type": "address"
        },
        {
          "internalType": "uint256",
          "name": "amount",
          "type": "uint256"
        }
      ],
      "name": "approve",
      "outputs": [
        {
          "internalType": "bool",
          "name": "",
          "type": "bool"
        }
      ],
      "stateMutability": "nonpayable",
      "type": "function"
    },
    {
      "inputs": [
        {
          "internalType": "address",
          "name": "account",
          "type": "address"
        }
      ],
      "name": "balanceOf",
      "outputs": [
        {
          "internalType": "uint256",
          "name": "",
          "type": "uint256"
        }
      ],
      "stateMutability": "view",
      "type": "function"
    },
    {
      "inputs": [],
      "name": "decimals",
      "outputs": [
        {
          "internalType": "uint8",
          "name": "",
          "type": "uint8"
        }
      ],
      "stateMutability": "view",
      "type": "function"
    },
    {
      "inputs": [
        {
          "internalType": "address",
          "name": "spender",
          "type": "address"
        },
        {
          "internalType": "uint256",
          "name": "subtractedValue",
          "type": "uint256"
        }
      ],
      "name": "decreaseAllowance",
      "outputs": [
        {
          "internalType": "bool",
          "name": "",
          "type": "bool"
        }
      ],
      "stateMutability": "nonpayable",
      "type": "function"
    },
    {
      "inputs": [
        {
          "internalType": "uint256",
          "name": "tAmount",
          "type": "uint256"
        }
      ],
      "name": "deliver",
      "outputs": [],
      "stateMutability": "nonpayable",
      "type": "function"
    },
    {
      "inputs": [
        {
          "internalType": "address",
          "name": "account",
          "type": "address"
        }
      ],
      "name": "excludeFromFee",
      "outputs": [],
      "stateMutability": "nonpayable",
      "type": "function"
    },
    {
      "inputs": [
        {
          "internalType": "address",
          "name": "account",
          "type": "address"
        }
      ],
      "name": "excludeFromReward",
      "outputs": [],
      "stateMutability": "nonpayable",
      "type": "function"
    },
    {
      "inputs": [
        {
          "internalType": "address",
          "name": "account",
          "type": "address"
        }
      ],
      "name": "includeInFee",
      "outputs": [],
      "stateMutability": "nonpayable",
      "type": "function"
    },
    {
      "inputs": [
        {
          "internalType": "address",
          "name": "account",
          "type": "address"
        }
      ],
      "name": "includeInReward",
      "outputs": [],
      "stateMutability": "nonpayable",
      "type": "function"
    },
    {
      "inputs": [
        {
          "internalType": "address",
          "name": "spender",
          "type": "address"
        },
        {
          "internalType": "uint256",
          "name": "addedValue",
          "type": "uint256"
        }
      ],
      "name": "increaseAllowance",
      "outputs": [
        {
          "internalType": "bool",
          "name": "",
          "type": "bool"
        }
      ],
      "stateMutability": "nonpayable",
      "type": "function"
    },
    {
      "inputs": [
        {
          "internalType": "address",
          "name": "account",
          "type": "address"
        }
      ],
      "name": "isExcludedFromFee",
      "outputs": [
        {
          "internalType": "bool",
          "name": "",
          "type": "bool"
        }
      ],
      "stateMutability": "view",
      "type": "function"
    },
    {
      "inputs": [
        {
          "internalType": "address",
          "name": "account",
          "type": "address"
        }
      ],
      "name": "isExcludedFromReward",
      "outputs": [
        {
          "internalType": "bool",
          "name": "",
          "type": "bool"
        }
      ],
      "stateMutability": "view",
      "type": "function"
    },
    {
      "inputs": [],
      "name": "name",
      "outputs": [
        {
          "internalType": "string",
          "name": "",
          "type": "string"
        }
      ],
      "stateMutability": "view",
      "type": "function"
    },
    {
      "inputs": [],
      "name": "owner",
      "outputs": [
        {
          "internalType": "address",
          "name": "",
          "type": "address"
        }
      ],
      "stateMutability": "view",
      "type": "function"
    },
    {
      "inputs": [
        {
          "internalType": "uint256",
          "name": "tAmount",
          "type": "uint256"
        },
        {
          "internalType": "bool",
          "name": "deductTransferFee",
          "type": "bool"
        }
      ],
      "name": "reflectionFromToken",
      "outputs": [
        {
          "internalType": "uint256",
          "name": "",
          "type": "uint256"
        }
      ],
      "stateMutability": "view",
      "type": "function"
    },
    {
      "inputs": [],
      "name": "renounceOwnership",
      "outputs": [],
      "stateMutability": "nonpayable",
      "type": "function"
    },
    {
      "inputs": [
        {
          "internalType": "uint256",
          "name": "liquidityFee",
          "type": "uint256"
        }
      ],
      "name": "setLiquidityFeePercent",
      "outputs": [],
      "stateMutability": "nonpayable",
      "type": "function"
    },
    {
      "inputs": [
        {
          "internalType": "uint256",
          "name": "maxTxPercent",
          "type": "uint256"
        }
      ],
      "name": "setMaxTxPercent",
      "outputs": [],
      "stateMutability": "nonpayable",
      "type": "function"
    },
    {
      "inputs": [
        {
          "internalType": "uint256",
          "name": "sellTaxFee",
          "type": "uint256"
        },
        {
          "internalType": "uint256",
          "name": "sellLiquidityFee",
          "type": "uint256"
        }
      ],
      "name": "setSellFee",
      "outputs": [],
      "stateMutability": "nonpayable",
      "type": "function"
    },
    {
      "inputs": [
        {
          "internalType": "bool",
          "name": "_enabled",
          "type": "bool"
        }
      ],
      "name": "setSwapAndLiquifyEnabled",
      "outputs": [],
      "stateMutability": "nonpayable",
      "type": "function"
    },
    {
      "inputs": [
        {
          "internalType": "uint256",
          "name": "taxFee",
          "type": "uint256"
        }
      ],
      "name": "setTaxFeePercent",
      "outputs": [],
      "stateMutability": "nonpayable",
      "type": "function"
    },
    {
      "inputs": [],
      "name": "swapAndLiquifyEnabled",
      "outputs": [
        {
          "internalType": "bool",
          "name": "",
          "type": "bool"
        }
      ],
      "stateMutability": "view",
      "type": "function"
    },
    {
      "inputs": [],
      "name": "symbol",
      "outputs": [
        {
          "internalType": "string",
          "name": "",
          "type": "string"
        }
      ],
      "stateMutability": "view",
      "type": "function"
    },
    {
      "inputs": [
        {
          "internalType": "uint256",
          "name": "rAmount",
          "type": "uint256"
        }
      ],
      "name": "tokenFromReflection",
      "outputs": [
        {
          "internalType": "uint256",
          "name": "",
          "type": "uint256"
        }
      ],
      "stateMutability": "view",
      "type": "function"
    },
    {
      "inputs": [],
      "name": "totalFees",
      "outputs": [
        {
          "internalType": "uint256",
          "name": "",
          "type": "uint256"
        }
      ],
      "stateMutability": "view",
      "type": "function"
    },
    {
      "inputs": [],
      "name": "totalSupply",
      "outputs": [
        {
          "internalType": "uint256",
          "name": "",
          "type": "uint256"
        }
      ],
      "stateMutability": "view",
      "type": "function"
    },
    {
      "inputs": [
        {
          "internalType": "address",
          "name": "recipient",
          "type": "address"
        },
        {
          "internalType": "uint256",
          "name": "amount",
          "type": "uint256"
        }
      ],
      "name": "transfer",
      "outputs": [
        {
          "internalType": "bool",
          "name": "",
          "type": "bool"
        }
      ],
      "stateMutability": "nonpayable",
      "type": "function"
    },
    {
      "inputs": [
        {
          "internalType": "address",
          "name": "sender",
          "type": "address"
        },
        {
          "internalType": "address",
          "name": "recipient",
          "type": "address"
        },
        {
          "internalType": "uint256",
          "name": "amount",
          "type": "uint256"
        }
      ],
      "name": "transferFrom",
      "outputs": [
        {
          "internalType": "bool",
          "name": "",
          "type": "bool"
        }
      ],
      "stateMutability": "nonpayable",
      "type": "function"
    },
    {
      "inputs": [
        {
          "internalType": "address",
          "name": "newOwner",
          "type": "address"
        }
      ],
      "name": "transferOwnership",
      "outputs": [],
      "stateMutability": "nonpayable",
      "type": "function"
    },
    {
      "inputs": [],
      "name": "uniswapV2Pair",
      "outputs": [
        {
          "internalType": "address",
          "name": "",
          "type": "address"
        }
      ],
      "stateMutability": "view",
      "type": "function"
    },
    {
      "inputs": [],
      "name": "uniswapV2Router",
      "outputs": [
        {
          "internalType": "contract IUniswapV2Router02",
          "name": "",
          "type": "address"
        }
      ],
      "stateMutability": "view",
      "type": "function"
    },
    {
      "stateMutability": "payable",
      "type": "receive"
    }
  ],
  "bytecode": "0x60c06040526aa56fa5b99019a5c8000000600781905562000023906000196200052b565b6200003190600019620004ca565b600855604080518082019091526009808252684b6962696d6172753360b81b60209092019182526200006691600a91620003f4565b50604080518082019091526005808252644b4952553360d81b60209092019182526200009591600b91620003f4565b50600c805460ff191660129081179091556005600d819055600e556000600f8190556010819055601181905590556013805461ff0019166101001790556c0c9f2c9cd04674edea400000006014556b033b2e3c9fd0803ce80000006015553480156200010057600080fd5b50600080546001600160a01b031916339081178255604051909182917f8be0079c531659141344cd1fd0a4f28419497f9722a3daafe3b4186f6b6457e0908290a350600854600160006200015c6000546001600160a01b031690565b6001600160a01b03166001600160a01b03168152602001908152602001600020819055506000739ac64cc6e4415144c455bd8e4837fea55603e5c39050806001600160a01b031663c45a01556040518163ffffffff1660e01b815260040160206040518083038186803b158015620001d357600080fd5b505afa158015620001e8573d6000803e3d6000fd5b505050506040513d601f19601f820116820180604052508101906200020e91906200049a565b6001600160a01b031663c9c6539630836001600160a01b031663ad5c46486040518163ffffffff1660e01b815260040160206040518083038186803b1580156200025757600080fd5b505afa1580156200026c573d6000803e3d6000fd5b505050506040513d601f19601f820116820180604052508101906200029291906200049a565b6040516001600160e01b031960e085901b1681526001600160a01b03928316600482015291166024820152604401602060405180830381600087803b158015620002db57600080fd5b505af1158015620002f0573d6000803e3d6000fd5b505050506040513d601f19601f820116820180604052508101906200031691906200049a565b6001600160601b0319606091821b811660a0529082901b166080526001600460006200034a6000546001600160a01b031690565b6001600160a01b0316815260208082019290925260409081016000908120805494151560ff1995861617905530815260049092529020805490911660011790556200039d6000546001600160a01b031690565b6001600160a01b031660006001600160a01b03167fddf252ad1be2c89b69c2b068fc378daa952ba7f163c4a11628f55a4df523b3ef600754604051620003e591815260200190565b60405180910390a3506200054c565b8280546200040290620004ee565b90600052602060002090601f01602090048101928262000426576000855562000471565b82601f106200044157805160ff191683800117855562000471565b8280016001018555821562000471579182015b828111156200047157825182559160200191906001019062000454565b506200047f92915062000483565b5090565b5b808211156200047f576000815560010162000484565b600060208284031215620004ac578081fd5b81516001600160a01b0381168114620004c3578182fd5b9392505050565b600082821015620004e957634e487b7160e01b81526011600452602481fd5b500390565b600181811c908216806200050357607f821691505b602082108114156200052557634e487b7160e01b600052602260045260246000fd5b50919050565b6000826200054757634e487b7160e01b81526012600452602481fd5b500690565b60805160601c60a05160601c6125d8620005a960003960008181610467015281816114f501526115a10152600081816102d801528181611bd201528181611ca801528181611ce401528181611d560152611d7d01526125d86000f3fe60806040526004361061021e5760003560e01c806352390c02116101235780638da5cb5b116100ab578063c49b9a801161006f578063c49b9a8014610664578063d543dbeb14610684578063dd62ed3e146106a4578063ea2f0b37146106ea578063f2fde38b1461070a57600080fd5b80638da5cb5b146105d15780638ee88c53146105ef57806395d89b411461060f578063a457c2d714610624578063a9059cbb1461064457600080fd5b806370a08231116100f257806370a0823114610537578063715018a6146105575780637d1db4a51461056c57806388790a681461058257806388f820201461059857600080fd5b806352390c02146104a85780635342acb4146104c85780636ac9a870146105015780636bc87c3a1461052157600080fd5b8063313ce567116101a65780633bd5d173116101755780633bd5d173146103f5578063437823ec146104155780634549b0391461043557806349bd5a5e146104555780634a74bb021461048957600080fd5b8063313ce5671461037d5780633685d4191461039f57806339509351146103bf5780633b124fe7146103df57600080fd5b80631694505e116101ed5780631694505e146102c657806318160ddd14610312578063200a692d1461032757806323b872dd1461033d5780632d8381191461035d57600080fd5b8063061c82d01461022a57806306fdde031461024c578063095ea7b31461027757806313114a9d146102a757600080fd5b3661022557005b600080fd5b34801561023657600080fd5b5061024a6102453660046122da565b61072a565b005b34801561025857600080fd5b50610261610762565b60405161026e919061236b565b60405180910390f35b34801561028357600080fd5b50610297610292366004612295565b6107f4565b604051901515815260200161026e565b3480156102b357600080fd5b506009545b60405190815260200161026e565b3480156102d257600080fd5b506102fa7f000000000000000000000000000000000000000000000000000000000000000081565b6040516001600160a01b03909116815260200161026e565b34801561031e57600080fd5b506007546102b8565b34801561033357600080fd5b506102b8600d5481565b34801561034957600080fd5b50610297610358366004612255565b61080b565b34801561036957600080fd5b506102b86103783660046122da565b610874565b34801561038957600080fd5b50600c5460405160ff909116815260200161026e565b3480156103ab57600080fd5b5061024a6103ba3660046121e5565b6108f8565b3480156103cb57600080fd5b506102976103da366004612295565b610ae7565b3480156103eb57600080fd5b506102b8600f5481565b34801561040157600080fd5b5061024a6104103660046122da565b610b1d565b34801561042157600080fd5b5061024a6104303660046121e5565b610c07565b34801561044157600080fd5b506102b86104503660046122f2565b610c55565b34801561046157600080fd5b506102fa7f000000000000000000000000000000000000000000000000000000000000000081565b34801561049557600080fd5b5060135461029790610100900460ff1681565b3480156104b457600080fd5b5061024a6104c33660046121e5565b610ce2565b3480156104d457600080fd5b506102976104e33660046121e5565b6001600160a01b031660009081526004602052604090205460ff1690565b34801561050d57600080fd5b5061024a61051c36600461231d565b610e35565b34801561052d57600080fd5b506102b860115481565b34801561054357600080fd5b506102b86105523660046121e5565b610e6a565b34801561056357600080fd5b5061024a610ec9565b34801561057857600080fd5b506102b860145481565b34801561058e57600080fd5b506102b8600e5481565b3480156105a457600080fd5b506102976105b33660046121e5565b6001600160a01b031660009081526005602052604090205460ff1690565b3480156105dd57600080fd5b506000546001600160a01b03166102fa565b3480156105fb57600080fd5b5061024a61060a3660046122da565b610f3d565b34801561061b57600080fd5b50610261610f6c565b34801561063057600080fd5b5061029761063f366004612295565b610f7b565b34801561065057600080fd5b5061029761065f366004612295565b610fca565b34801561067057600080fd5b5061024a61067f3660046122c0565b610fd7565b34801561069057600080fd5b5061024a61069f3660046122da565b611055565b3480156106b057600080fd5b506102b86106bf36600461221d565b6001600160a01b03918216600090815260036020908152604080832093909416825291909152205490565b3480156106f657600080fd5b5061024a6107053660046121e5565b6110a5565b34801561071657600080fd5b5061024a6107253660046121e5565b6110f0565b6000546001600160a01b0316331461075d5760405162461bcd60e51b8152600401610754906123be565b60405180910390fd5b600f55565b6060600a8054610771906124d1565b80601f016020809104026020016040519081016040528092919081815260200182805461079d906124d1565b80156107ea5780601f106107bf576101008083540402835291602001916107ea565b820191906000526020600020905b8154815290600101906020018083116107cd57829003601f168201915b5050505050905090565b60006108013384846111da565b5060015b92915050565b60006108188484846112fe565b61086a843361086585604051806060016040528060288152602001612556602891396001600160a01b038a166000908152600360209081526040808320338452909152902054919061160a565b6111da565b5060019392505050565b60006008548211156108db5760405162461bcd60e51b815260206004820152602a60248201527f416d6f756e74206d757374206265206c657373207468616e20746f74616c207260448201526965666c656374696f6e7360b01b6064820152608401610754565b60006108e5611636565b90506108f18382611659565b9392505050565b6000546001600160a01b031633146109225760405162461bcd60e51b8152600401610754906123be565b6001600160a01b03811660009081526005602052604090205460ff1661098a5760405162461bcd60e51b815260206004820152601b60248201527f4163636f756e7420697320616c726561647920696e636c7564656400000000006044820152606401610754565b60005b600654811015610ae357816001600160a01b0316600682815481106109c257634e487b7160e01b600052603260045260246000fd5b6000918252602090912001546001600160a01b03161415610ad157600680546109ed906001906124ba565b81548110610a0b57634e487b7160e01b600052603260045260246000fd5b600091825260209091200154600680546001600160a01b039092169183908110610a4557634e487b7160e01b600052603260045260246000fd5b600091825260208083209190910180546001600160a01b0319166001600160a01b039485161790559184168152600282526040808220829055600590925220805460ff191690556006805480610aab57634e487b7160e01b600052603160045260246000fd5b600082815260209020810160001990810180546001600160a01b03191690550190555050565b80610adb8161250c565b91505061098d565b5050565b3360008181526003602090815260408083206001600160a01b038716845290915281205490916108019185906108659086611665565b3360008181526005602052604090205460ff1615610b925760405162461bcd60e51b815260206004820152602c60248201527f4578636c75646564206164647265737365732063616e6e6f742063616c6c207460448201526b3434b990333ab731ba34b7b760a11b6064820152608401610754565b6000610b9d83611671565b505050506001600160a01b038416600090815260016020526040902054919250610bc9919050826116c0565b6001600160a01b038316600090815260016020526040902055600854610bef90826116c0565b600855600954610bff9084611665565b600955505050565b6000546001600160a01b03163314610c315760405162461bcd60e51b8152600401610754906123be565b6001600160a01b03166000908152600460205260409020805460ff19166001179055565b6000600754831115610ca95760405162461bcd60e51b815260206004820152601f60248201527f416d6f756e74206d757374206265206c657373207468616e20737570706c79006044820152606401610754565b81610cc8576000610cb984611671565b50939550610805945050505050565b6000610cd384611671565b50929550610805945050505050565b6000546001600160a01b03163314610d0c5760405162461bcd60e51b8152600401610754906123be565b6001600160a01b03811660009081526005602052604090205460ff1615610d755760405162461bcd60e51b815260206004820152601b60248201527f4163636f756e7420697320616c7265616479206578636c7564656400000000006044820152606401610754565b6001600160a01b03811660009081526001602052604090205415610dcf576001600160a01b038116600090815260016020526040902054610db590610874565b6001600160a01b0382166000908152600260205260409020555b6001600160a01b03166000818152600560205260408120805460ff191660019081179091556006805491820181559091527ff652222313e28459528d920b65115c16c04f3efc82aaedc97be59f3f377c0d3f0180546001600160a01b0319169091179055565b6000546001600160a01b03163314610e5f5760405162461bcd60e51b8152600401610754906123be565b600d91909155600e55565b6001600160a01b03811660009081526005602052604081205460ff1615610ea757506001600160a01b031660009081526002602052604090205490565b6001600160a01b03821660009081526001602052604090205461080590610874565b6000546001600160a01b03163314610ef35760405162461bcd60e51b8152600401610754906123be565b600080546040516001600160a01b03909116907f8be0079c531659141344cd1fd0a4f28419497f9722a3daafe3b4186f6b6457e0908390a3600080546001600160a01b0319169055565b6000546001600160a01b03163314610f675760405162461bcd60e51b8152600401610754906123be565b601155565b6060600b8054610771906124d1565b600061080133846108658560405180606001604052806025815260200161257e602591393360009081526003602090815260408083206001600160a01b038d168452909152902054919061160a565b60006108013384846112fe565b6000546001600160a01b031633146110015760405162461bcd60e51b8152600401610754906123be565b601380548215156101000261ff00199091161790556040517f53726dfcaf90650aa7eb35524f4d3220f07413c8d6cb404cc8c18bf5591bc1599061104a90831515815260200190565b60405180910390a150565b6000546001600160a01b0316331461107f5760405162461bcd60e51b8152600401610754906123be565b61109f6064611099836007546116cc90919063ffffffff16565b90611659565b60145550565b6000546001600160a01b031633146110cf5760405162461bcd60e51b8152600401610754906123be565b6001600160a01b03166000908152600460205260409020805460ff19169055565b6000546001600160a01b0316331461111a5760405162461bcd60e51b8152600401610754906123be565b6001600160a01b03811661117f5760405162461bcd60e51b815260206004820152602660248201527f4f776e61626c653a206e6577206f776e657220697320746865207a65726f206160448201526564647265737360d01b6064820152608401610754565b600080546040516001600160a01b03808516939216917f8be0079c531659141344cd1fd0a4f28419497f9722a3daafe3b4186f6b6457e091a3600080546001600160a01b0319166001600160a01b0392909216919091179055565b6001600160a01b03831661123c5760405162461bcd60e51b8152602060048201526024808201527f45524332303a20617070726f76652066726f6d20746865207a65726f206164646044820152637265737360e01b6064820152608401610754565b6001600160a01b03821661129d5760405162461bcd60e51b815260206004820152602260248201527f45524332303a20617070726f766520746f20746865207a65726f206164647265604482015261737360f01b6064820152608401610754565b6001600160a01b0383811660008181526003602090815260408083209487168084529482529182902085905590518481527f8c5be1e5ebec7d5bd14f71427d1e84f3dd0314c0f7b2291e5b200ac8c7c3b925910160405180910390a3505050565b6001600160a01b0383166113625760405162461bcd60e51b815260206004820152602560248201527f45524332303a207472616e736665722066726f6d20746865207a65726f206164604482015264647265737360d81b6064820152608401610754565b6001600160a01b0382166113c45760405162461bcd60e51b815260206004820152602360248201527f45524332303a207472616e7366657220746f20746865207a65726f206164647260448201526265737360e81b6064820152608401610754565b600081116114265760405162461bcd60e51b815260206004820152602960248201527f5472616e7366657220616d6f756e74206d7573742062652067726561746572206044820152687468616e207a65726f60b81b6064820152608401610754565b6000546001600160a01b0384811691161480159061145257506000546001600160a01b03838116911614155b156114ba576014548111156114ba5760405162461bcd60e51b815260206004820152602860248201527f5472616e7366657220616d6f756e74206578636565647320746865206d6178546044820152673c20b6b7bab73a1760c11b6064820152608401610754565b60006114c530610e6a565b905060145481106114d557506014545b601554811080159081906114ec575060135460ff16155b801561152a57507f00000000000000000000000000000000000000000000000000000000000000006001600160a01b0316856001600160a01b031614155b801561153d5750601354610100900460ff165b15611550576015549150611550826116d8565b6001600160a01b03851660009081526004602052604090205460019060ff168061159257506001600160a01b03851660009081526004602052604090205460ff165b1561159f575060006115f6565b7f00000000000000000000000000000000000000000000000000000000000000006001600160a01b0316856001600160a01b031614156115f2576115e1611776565b600d54600f55600e546011556115f6565b5060005b611602868686846117a4565b505050505050565b6000818484111561162e5760405162461bcd60e51b8152600401610754919061236b565b505050900390565b6000806000611643611921565b90925090506116528282611659565b9250505090565b60006108f1828461247b565b60006108f18284612463565b60008060008060008060008060006116888a611adb565b92509250925060008060006116a68d86866116a1611636565b611b1d565b919f909e50909c50959a5093985091965092945050505050565b60006108f182846124ba565b60006108f1828461249b565b6013805460ff1916600117905560006116f2826002611659565b9050600061170083836116c0565b90504761170c83611b6d565b600061171847836116c0565b90506117248382611d50565b60408051858152602081018390529081018490527f17bbfb9a6069321b6ded73bd96327c9e6b7212a5cd51ff219cd61370acafb5619060600160405180910390a150506013805460ff19169055505050565b600f541580156117865750601154155b1561178d57565b600f80546010556011805460125560009182905555565b806117b1576117b1611776565b6001600160a01b03841660009081526005602052604090205460ff1680156117f257506001600160a01b03831660009081526005602052604090205460ff16155b1561180757611802848484611e65565b611905565b6001600160a01b03841660009081526005602052604090205460ff1615801561184857506001600160a01b03831660009081526005602052604090205460ff165b1561185857611802848484611f8b565b6001600160a01b03841660009081526005602052604090205460ff1615801561189a57506001600160a01b03831660009081526005602052604090205460ff16155b156118aa57611802848484612034565b6001600160a01b03841660009081526005602052604090205460ff1680156118ea57506001600160a01b03831660009081526005602052604090205460ff165b156118fa57611802848484612078565b611905848484612034565b8061191b5761191b601054600f55601254601155565b50505050565b6008546007546000918291825b600654811015611aab5782600160006006848154811061195e57634e487b7160e01b600052603260045260246000fd5b60009182526020808320909101546001600160a01b0316835282019290925260400190205411806119d757508160026000600684815481106119b057634e487b7160e01b600052603260045260246000fd5b60009182526020808320909101546001600160a01b03168352820192909252604001902054115b156119ed57600854600754945094505050509091565b611a416001600060068481548110611a1557634e487b7160e01b600052603260045260246000fd5b60009182526020808320909101546001600160a01b0316835282019290925260400190205484906116c0565b9250611a976002600060068481548110611a6b57634e487b7160e01b600052603260045260246000fd5b60009182526020808320909101546001600160a01b0316835282019290925260400190205483906116c0565b915080611aa38161250c565b91505061192e565b50600754600854611abb91611659565b821015611ad2576008546007549350935050509091565b90939092509050565b600080600080611aea856120eb565b90506000611af786612107565b90506000611b0f82611b0989866116c0565b906116c0565b979296509094509092505050565b6000808080611b2c88866116cc565b90506000611b3a88876116cc565b90506000611b4888886116cc565b90506000611b5a82611b0986866116c0565b939b939a50919850919650505050505050565b6040805160028082526060820183526000926020830190803683370190505090503081600081518110611bb057634e487b7160e01b600052603260045260246000fd5b60200260200101906001600160a01b031690816001600160a01b0316815250507f00000000000000000000000000000000000000000000000000000000000000006001600160a01b031663ad5c46486040518163ffffffff1660e01b815260040160206040518083038186803b158015611c2957600080fd5b505afa158015611c3d573d6000803e3d6000fd5b505050506040513d601f19601f82011682018060405250810190611c619190612201565b81600181518110611c8257634e487b7160e01b600052603260045260246000fd5b60200260200101906001600160a01b031690816001600160a01b031681525050611ccd307f0000000000000000000000000000000000000000000000000000000000000000846111da565b60405163791ac94760e01b81526001600160a01b037f0000000000000000000000000000000000000000000000000000000000000000169063791ac94790611d229085906000908690309042906004016123f3565b600060405180830381600087803b158015611d3c57600080fd5b505af1158015611602573d6000803e3d6000fd5b611d7b307f0000000000000000000000000000000000000000000000000000000000000000846111da565b7f00000000000000000000000000000000000000000000000000000000000000006001600160a01b031663f305d719823085600080611dc26000546001600160a01b031690565b60405160e088901b6001600160e01b03191681526001600160a01b03958616600482015260248101949094526044840192909252606483015290911660848201524260a482015260c4016060604051808303818588803b158015611e2557600080fd5b505af1158015611e39573d6000803e3d6000fd5b50505050506040513d601f19601f82011682018060405250810190611e5e919061233e565b5050505050565b600080600080600080611e7787611671565b6001600160a01b038f16600090815260026020526040902054959b50939950919750955093509150611ea990886116c0565b6001600160a01b038a16600090815260026020908152604080832093909355600190522054611ed890876116c0565b6001600160a01b03808b1660009081526001602052604080822093909355908a1681522054611f079086611665565b6001600160a01b038916600090815260016020526040902055611f2981612123565b611f3384836121ac565b876001600160a01b0316896001600160a01b03167fddf252ad1be2c89b69c2b068fc378daa952ba7f163c4a11628f55a4df523b3ef85604051611f7891815260200190565b60405180910390a3505050505050505050565b600080600080600080611f9d87611671565b6001600160a01b038f16600090815260016020526040902054959b50939950919750955093509150611fcf90876116c0565b6001600160a01b03808b16600090815260016020908152604080832094909455918b168152600290915220546120059084611665565b6001600160a01b038916600090815260026020908152604080832093909355600190522054611f079086611665565b60008060008060008061204687611671565b6001600160a01b038f16600090815260016020526040902054959b50939950919750955093509150611ed890876116c0565b60008060008060008061208a87611671565b6001600160a01b038f16600090815260026020526040902054959b509399509197509550935091506120bc90886116c0565b6001600160a01b038a16600090815260026020908152604080832093909355600190522054611fcf90876116c0565b60006108056064611099600f54856116cc90919063ffffffff16565b60006108056064611099601154856116cc90919063ffffffff16565b600061212d611636565b9050600061213b83836116cc565b306000908152600160205260409020549091506121589082611665565b3060009081526001602090815260408083209390935560059052205460ff16156121a757306000908152600260205260409020546121969084611665565b306000908152600260205260409020555b505050565b6008546121b990836116c0565b6008556009546121c99082611665565b6009555050565b803580151581146121e057600080fd5b919050565b6000602082840312156121f6578081fd5b81356108f18161253d565b600060208284031215612212578081fd5b81516108f18161253d565b6000806040838503121561222f578081fd5b823561223a8161253d565b9150602083013561224a8161253d565b809150509250929050565b600080600060608486031215612269578081fd5b83356122748161253d565b925060208401356122848161253d565b929592945050506040919091013590565b600080604083850312156122a7578182fd5b82356122b28161253d565b946020939093013593505050565b6000602082840312156122d1578081fd5b6108f1826121d0565b6000602082840312156122eb578081fd5b5035919050565b60008060408385031215612304578182fd5b82359150612314602084016121d0565b90509250929050565b6000806040838503121561232f578182fd5b50508035926020909101359150565b600080600060608486031215612352578283fd5b8351925060208401519150604084015190509250925092565b6000602080835283518082850152825b818110156123975785810183015185820160400152820161237b565b818111156123a85783604083870101525b50601f01601f1916929092016040019392505050565b6020808252818101527f4f776e61626c653a2063616c6c6572206973206e6f7420746865206f776e6572604082015260600190565b600060a082018783526020878185015260a0604085015281875180845260c0860191508289019350845b818110156124425784516001600160a01b03168352938301939183019160010161241d565b50506001600160a01b03969096166060850152505050608001529392505050565b6000821982111561247657612476612527565b500190565b60008261249657634e487b7160e01b81526012600452602481fd5b500490565b60008160001904831182151516156124b5576124b5612527565b500290565b6000828210156124cc576124cc612527565b500390565b600181811c908216806124e557607f821691505b6020821081141561250657634e487b7160e01b600052602260045260246000fd5b50919050565b600060001982141561252057612520612527565b5060010190565b634e487b7160e01b600052601160045260246000fd5b6001600160a01b038116811461255257600080fd5b5056fe45524332303a207472616e7366657220616d6f756e74206578636565647320616c6c6f77616e636545524332303a2064656372656173656420616c6c6f77616e63652062656c6f77207a65726fa2646970667358221220f50ae1672725f90e8caa00c998ff66c1a06dd802667d4ad9ba1b127e93c8726d64736f6c63430008040033",
  "linkReferences": {},
  "deployedLinkReferences": {}
}